{
  "_format": "hh-sol-artifact-1",
  "contractName": "DegenTickets",
  "sourceName": "contracts/TicketsERC1155.sol",
  "abi": [
    {
      "inputs": [
        {
          "internalType": "string",
          "name": "tokenUri",
          "type": "string"
        },
        {
          "internalType": "uint256",
          "name": "_ticketPrice",
          "type": "uint256"
        },
        {
          "internalType": "uint256",
          "name": "_bandTicketSalesPercent",
          "type": "uint256"
        },
        {
          "internalType": "address",
          "name": "_bandAddress",
          "type": "address"
        },
        {
          "internalType": "address",
          "name": "_venueAddress",
          "type": "address"
        },
        {
          "internalType": "uint256",
          "name": "_maxSupply",
          "type": "uint256"
        }
      ],
      "stateMutability": "nonpayable",
      "type": "constructor"
    },
    {
      "anonymous": false,
      "inputs": [
        {
          "indexed": true,
          "internalType": "address",
          "name": "account",
          "type": "address"
        },
        {
          "indexed": true,
          "internalType": "address",
          "name": "operator",
          "type": "address"
        },
        {
          "indexed": false,
          "internalType": "bool",
          "name": "approved",
          "type": "bool"
        }
      ],
      "name": "ApprovalForAll",
      "type": "event"
    },
    {
      "anonymous": false,
      "inputs": [
        {
          "indexed": true,
          "internalType": "address",
          "name": "operator",
          "type": "address"
        },
        {
          "indexed": true,
          "internalType": "address",
          "name": "from",
          "type": "address"
        },
        {
          "indexed": true,
          "internalType": "address",
          "name": "to",
          "type": "address"
        },
        {
          "indexed": false,
          "internalType": "uint256[]",
          "name": "ids",
          "type": "uint256[]"
        },
        {
          "indexed": false,
          "internalType": "uint256[]",
          "name": "values",
          "type": "uint256[]"
        }
      ],
      "name": "TransferBatch",
      "type": "event"
    },
    {
      "anonymous": false,
      "inputs": [
        {
          "indexed": true,
          "internalType": "address",
          "name": "operator",
          "type": "address"
        },
        {
          "indexed": true,
          "internalType": "address",
          "name": "from",
          "type": "address"
        },
        {
          "indexed": true,
          "internalType": "address",
          "name": "to",
          "type": "address"
        },
        {
          "indexed": false,
          "internalType": "uint256",
          "name": "id",
          "type": "uint256"
        },
        {
          "indexed": false,
          "internalType": "uint256",
          "name": "value",
          "type": "uint256"
        }
      ],
      "name": "TransferSingle",
      "type": "event"
    },
    {
      "anonymous": false,
      "inputs": [
        {
          "indexed": false,
          "internalType": "string",
          "name": "value",
          "type": "string"
        },
        {
          "indexed": true,
          "internalType": "uint256",
          "name": "id",
          "type": "uint256"
        }
      ],
      "name": "URI",
      "type": "event"
    },
    {
      "inputs": [],
      "name": "BandAddress",
      "outputs": [
        {
          "internalType": "address",
          "name": "",
          "type": "address"
        }
      ],
      "stateMutability": "view",
      "type": "function"
    },
    {
      "inputs": [],
      "name": "VenueAddress",
      "outputs": [
        {
          "internalType": "address",
          "name": "",
          "type": "address"
        }
      ],
      "stateMutability": "view",
      "type": "function"
    },
    {
      "inputs": [],
      "name": "admin",
      "outputs": [
        {
          "internalType": "address",
          "name": "",
          "type": "address"
        }
      ],
      "stateMutability": "view",
      "type": "function"
    },
    {
      "inputs": [
        {
          "internalType": "address",
          "name": "account",
          "type": "address"
        },
        {
          "internalType": "uint256",
          "name": "id",
          "type": "uint256"
        }
      ],
      "name": "balanceOf",
      "outputs": [
        {
          "internalType": "uint256",
          "name": "",
          "type": "uint256"
        }
      ],
      "stateMutability": "view",
      "type": "function"
    },
    {
      "inputs": [
        {
          "internalType": "address[]",
          "name": "accounts",
          "type": "address[]"
        },
        {
          "internalType": "uint256[]",
          "name": "ids",
          "type": "uint256[]"
        }
      ],
      "name": "balanceOfBatch",
      "outputs": [
        {
          "internalType": "uint256[]",
          "name": "",
          "type": "uint256[]"
        }
      ],
      "stateMutability": "view",
      "type": "function"
    },
    {
      "inputs": [],
      "name": "bandTicketSalesPercent",
      "outputs": [
        {
          "internalType": "uint256",
          "name": "",
          "type": "uint256"
        }
      ],
      "stateMutability": "view",
      "type": "function"
    },
    {
      "inputs": [
        {
          "internalType": "uint256",
          "name": "amount",
          "type": "uint256"
        }
      ],
      "name": "buyTickets",
      "outputs": [],
      "stateMutability": "payable",
      "type": "function"
    },
    {
      "inputs": [
        {
          "internalType": "address",
          "name": "newAdmin",
          "type": "address"
        }
      ],
      "name": "changeAdmin",
      "outputs": [],
      "stateMutability": "nonpayable",
      "type": "function"
    },
    {
      "inputs": [
        {
          "internalType": "address",
          "name": "account",
          "type": "address"
        },
        {
          "internalType": "address",
          "name": "operator",
          "type": "address"
        }
      ],
      "name": "isApprovedForAll",
      "outputs": [
        {
          "internalType": "bool",
          "name": "",
          "type": "bool"
        }
      ],
      "stateMutability": "view",
      "type": "function"
    },
    {
      "inputs": [],
      "name": "maxSupply",
      "outputs": [
        {
          "internalType": "uint256",
          "name": "",
          "type": "uint256"
        }
      ],
      "stateMutability": "view",
      "type": "function"
    },
    {
      "inputs": [
        {
          "internalType": "address",
          "name": "from",
          "type": "address"
        },
        {
          "internalType": "address",
          "name": "to",
          "type": "address"
        },
        {
          "internalType": "uint256[]",
          "name": "ids",
          "type": "uint256[]"
        },
        {
          "internalType": "uint256[]",
          "name": "amounts",
          "type": "uint256[]"
        },
        {
          "internalType": "bytes",
          "name": "data",
          "type": "bytes"
        }
      ],
      "name": "safeBatchTransferFrom",
      "outputs": [],
      "stateMutability": "nonpayable",
      "type": "function"
    },
    {
      "inputs": [
        {
          "internalType": "address",
          "name": "from",
          "type": "address"
        },
        {
          "internalType": "address",
          "name": "to",
          "type": "address"
        },
        {
          "internalType": "uint256",
          "name": "id",
          "type": "uint256"
        },
        {
          "internalType": "uint256",
          "name": "amount",
          "type": "uint256"
        },
        {
          "internalType": "bytes",
          "name": "data",
          "type": "bytes"
        }
      ],
      "name": "safeTransferFrom",
      "outputs": [],
      "stateMutability": "nonpayable",
      "type": "function"
    },
    {
      "inputs": [
        {
          "internalType": "address",
          "name": "operator",
          "type": "address"
        },
        {
          "internalType": "bool",
          "name": "approved",
          "type": "bool"
        }
      ],
      "name": "setApprovalForAll",
      "outputs": [],
      "stateMutability": "nonpayable",
      "type": "function"
    },
    {
      "inputs": [
        {
          "internalType": "string",
          "name": "newuri",
          "type": "string"
        }
      ],
      "name": "setURI",
      "outputs": [],
      "stateMutability": "nonpayable",
      "type": "function"
    },
    {
      "inputs": [
        {
          "internalType": "bytes4",
          "name": "interfaceId",
          "type": "bytes4"
        }
      ],
      "name": "supportsInterface",
      "outputs": [
        {
          "internalType": "bool",
          "name": "",
          "type": "bool"
        }
      ],
      "stateMutability": "view",
      "type": "function"
    },
    {
      "inputs": [],
      "name": "ticketCount",
      "outputs": [
        {
          "internalType": "uint256",
          "name": "",
          "type": "uint256"
        }
      ],
      "stateMutability": "view",
      "type": "function"
    },
    {
      "inputs": [],
      "name": "ticketPrice",
      "outputs": [
        {
          "internalType": "uint256",
          "name": "",
          "type": "uint256"
        }
      ],
      "stateMutability": "view",
      "type": "function"
    },
    {
      "inputs": [
        {
          "internalType": "uint256",
          "name": "",
          "type": "uint256"
        }
      ],
      "name": "uri",
      "outputs": [
        {
          "internalType": "string",
          "name": "",
          "type": "string"
        }
      ],
      "stateMutability": "view",
      "type": "function"
    }
  ],
  "bytecode": "0x60806040523480156200001157600080fd5b5060405162003afd38038062003afd833981810160405281019062000037919062000376565b8562000049816200012e60201b60201c565b5033600360006101000a81548173ffffffffffffffffffffffffffffffffffffffff021916908373ffffffffffffffffffffffffffffffffffffffff160217905550846009819055508360088190555082600660006101000a81548173ffffffffffffffffffffffffffffffffffffffff021916908373ffffffffffffffffffffffffffffffffffffffff16021790555081600760006101000a81548173ffffffffffffffffffffffffffffffffffffffff021916908373ffffffffffffffffffffffffffffffffffffffff1602179055508060048190555050505050505062000759565b80600290816200013f919062000672565b5050565b6000604051905090565b600080fd5b600080fd5b600080fd5b600080fd5b6000601f19601f8301169050919050565b7f4e487b7100000000000000000000000000000000000000000000000000000000600052604160045260246000fd5b620001ac8262000161565b810181811067ffffffffffffffff82111715620001ce57620001cd62000172565b5b80604052505050565b6000620001e362000143565b9050620001f18282620001a1565b919050565b600067ffffffffffffffff82111562000214576200021362000172565b5b6200021f8262000161565b9050602081019050919050565b60005b838110156200024c5780820151818401526020810190506200022f565b60008484015250505050565b60006200026f6200026984620001f6565b620001d7565b9050828152602081018484840111156200028e576200028d6200015c565b5b6200029b8482856200022c565b509392505050565b600082601f830112620002bb57620002ba62000157565b5b8151620002cd84826020860162000258565b91505092915050565b6000819050919050565b620002eb81620002d6565b8114620002f757600080fd5b50565b6000815190506200030b81620002e0565b92915050565b600073ffffffffffffffffffffffffffffffffffffffff82169050919050565b60006200033e8262000311565b9050919050565b620003508162000331565b81146200035c57600080fd5b50565b600081519050620003708162000345565b92915050565b60008060008060008060c087890312156200039657620003956200014d565b5b600087015167ffffffffffffffff811115620003b757620003b662000152565b5b620003c589828a01620002a3565b9650506020620003d889828a01620002fa565b9550506040620003eb89828a01620002fa565b9450506060620003fe89828a016200035f565b93505060806200041189828a016200035f565b92505060a06200042489828a01620002fa565b9150509295509295509295565b600081519050919050565b7f4e487b7100000000000000000000000000000000000000000000000000000000600052602260045260246000fd5b600060028204905060018216806200048457607f821691505b6020821081036200049a57620004996200043c565b5b50919050565b60008190508160005260206000209050919050565b60006020601f8301049050919050565b600082821b905092915050565b600060088302620005047fffffffffffffffffffffffffffffffffffffffffffffffffffffffffffffffff82620004c5565b620005108683620004c5565b95508019841693508086168417925050509392505050565b6000819050919050565b6000620005536200054d6200054784620002d6565b62000528565b620002d6565b9050919050565b6000819050919050565b6200056f8362000532565b620005876200057e826200055a565b848454620004d2565b825550505050565b600090565b6200059e6200058f565b620005ab81848462000564565b505050565b5b81811015620005d357620005c760008262000594565b600181019050620005b1565b5050565b601f8211156200062257620005ec81620004a0565b620005f784620004b5565b8101602085101562000607578190505b6200061f6200061685620004b5565b830182620005b0565b50505b505050565b600082821c905092915050565b6000620006476000198460080262000627565b1980831691505092915050565b600062000662838362000634565b9150826002028217905092915050565b6200067d8262000431565b67ffffffffffffffff81111562000699576200069862000172565b5b620006a582546200046b565b620006b2828285620005d7565b600060209050601f831160018114620006ea5760008415620006d5578287015190505b620006e1858262000654565b86555062000751565b601f198416620006fa86620004a0565b60005b828110156200072457848901518255600182019150602085019450602081019050620006fd565b8683101562000744578489015162000740601f89168262000634565b8355505b6001600288020188555050505b505050505050565b61339480620007696000396000f3fe6080604052600436106101085760003560e01c8063959933e811610095578063cfbd900f11610064578063cfbd900f1461036d578063d5abeb0114610398578063e985e9c5146103c3578063f242432a14610400578063f851a4401461042957610108565b8063959933e8146102c35780639d451ed8146102ee578063a22cb46514610319578063cf968e581461034257610108565b80631209b1f6116100dc5780631209b1f6146101ed5780632eb2c2d6146102185780632f366637146102415780634e1273f41461025d5780638f2839701461029a57610108565b8062fdd58e1461010d57806301ffc9a71461014a57806302fe5305146101875780630e89341c146101b0575b600080fd5b34801561011957600080fd5b50610134600480360381019061012f9190611bcb565b610454565b6040516101419190611c1a565b60405180910390f35b34801561015657600080fd5b50610171600480360381019061016c9190611c8d565b61051c565b60405161017e9190611cd5565b60405180910390f35b34801561019357600080fd5b506101ae60048036038101906101a99190611e36565b6105fe565b005b3480156101bc57600080fd5b506101d760048036038101906101d29190611e7f565b61069a565b6040516101e49190611f2b565b60405180910390f35b3480156101f957600080fd5b5061020261072e565b60405161020f9190611c1a565b60405180910390f35b34801561022457600080fd5b5061023f600480360381019061023a91906120b6565b610734565b005b61025b60048036038101906102569190611e7f565b6107d5565b005b34801561026957600080fd5b50610284600480360381019061027f9190612248565b610999565b604051610291919061237e565b60405180910390f35b3480156102a657600080fd5b506102c160048036038101906102bc91906123a0565b610ab2565b005b3480156102cf57600080fd5b506102d8610b86565b6040516102e591906123dc565b60405180910390f35b3480156102fa57600080fd5b50610303610bac565b6040516103109190611c1a565b60405180910390f35b34801561032557600080fd5b50610340600480360381019061033b9190612423565b610bb2565b005b34801561034e57600080fd5b50610357610bc8565b60405161036491906123dc565b60405180910390f35b34801561037957600080fd5b50610382610bee565b60405161038f9190611c1a565b60405180910390f35b3480156103a457600080fd5b506103ad610bf4565b6040516103ba9190611c1a565b60405180910390f35b3480156103cf57600080fd5b506103ea60048036038101906103e59190612463565b610bfa565b6040516103f79190611cd5565b60405180910390f35b34801561040c57600080fd5b50610427600480360381019061042291906124a3565b610c8e565b005b34801561043557600080fd5b5061043e610d2f565b60405161044b91906123dc565b60405180910390f35b60008073ffffffffffffffffffffffffffffffffffffffff168373ffffffffffffffffffffffffffffffffffffffff16036104c4576040517f08c379a00000000000000000000000000000000000000000000000000000000081526004016104bb906125ac565b60405180910390fd5b60008083815260200190815260200160002060008473ffffffffffffffffffffffffffffffffffffffff1673ffffffffffffffffffffffffffffffffffffffff16815260200190815260200160002054905092915050565b60007fd9b67a26000000000000000000000000000000000000000000000000000000007bffffffffffffffffffffffffffffffffffffffffffffffffffffffff1916827bffffffffffffffffffffffffffffffffffffffffffffffffffffffff191614806105e757507f0e89341c000000000000000000000000000000000000000000000000000000007bffffffffffffffffffffffffffffffffffffffffffffffffffffffff1916827bffffffffffffffffffffffffffffffffffffffffffffffffffffffff1916145b806105f757506105f682610d55565b5b9050919050565b600360009054906101000a900473ffffffffffffffffffffffffffffffffffffffff1673ffffffffffffffffffffffffffffffffffffffff163373ffffffffffffffffffffffffffffffffffffffff161461068e576040517f08c379a000000000000000000000000000000000000000000000000000000000815260040161068590612618565b60405180910390fd5b61069781610dbf565b50565b6060600280546106a990612667565b80601f01602080910402602001604051908101604052809291908181526020018280546106d590612667565b80156107225780601f106106f757610100808354040283529160200191610722565b820191906000526020600020905b81548152906001019060200180831161070557829003601f168201915b50505050509050919050565b60095481565b61073c610dd2565b73ffffffffffffffffffffffffffffffffffffffff168573ffffffffffffffffffffffffffffffffffffffff16148061078257506107818561077c610dd2565b610bfa565b5b6107c1576040517f08c379a00000000000000000000000000000000000000000000000000000000081526004016107b89061270a565b60405180910390fd5b6107ce8585858585610dda565b5050505050565b60095434101561081a576040517f08c379a000000000000000000000000000000000000000000000000000000000815260040161081190612776565b60405180910390fd5b8060055461082891906127c5565b6004541161086b576040517f08c379a00000000000000000000000000000000000000000000000000000000081526004016108629061286b565b60405180910390fd5b60006001905060606000606460085434610885919061288b565b61088f91906128fc565b9050600660009054906101000a900473ffffffffffffffffffffffffffffffffffffffff1673ffffffffffffffffffffffffffffffffffffffff166108fc829081150290604051600060405180830381858888f193505050501580156108f9573d6000803e3d6000fd5b50600760009054906101000a900473ffffffffffffffffffffffffffffffffffffffff1673ffffffffffffffffffffffffffffffffffffffff166108fc8234610942919061292d565b9081150290604051600060405180830381858888f1935050505015801561096d573d6000803e3d6000fd5b5061097a338486856110fb565b836005600082825461098c91906127c5565b9250508190555050505050565b606081518351146109df576040517f08c379a00000000000000000000000000000000000000000000000000000000081526004016109d6906129d3565b60405180910390fd5b6000835167ffffffffffffffff8111156109fc576109fb611d0b565b5b604051908082528060200260200182016040528015610a2a5781602001602082028036833780820191505090505b50905060005b8451811015610aa757610a77858281518110610a4f57610a4e6129f3565b5b6020026020010151858381518110610a6a57610a696129f3565b5b6020026020010151610454565b828281518110610a8a57610a896129f3565b5b60200260200101818152505080610aa090612a22565b9050610a30565b508091505092915050565b600360009054906101000a900473ffffffffffffffffffffffffffffffffffffffff1673ffffffffffffffffffffffffffffffffffffffff163373ffffffffffffffffffffffffffffffffffffffff1614610b42576040517f08c379a0000000000000000000000000000000000000000000000000000000008152600401610b3990612618565b60405180910390fd5b80600360006101000a81548173ffffffffffffffffffffffffffffffffffffffff021916908373ffffffffffffffffffffffffffffffffffffffff16021790555050565b600660009054906101000a900473ffffffffffffffffffffffffffffffffffffffff1681565b60085481565b610bc4610bbd610dd2565b83836112ab565b5050565b600760009054906101000a900473ffffffffffffffffffffffffffffffffffffffff1681565b60055481565b60045481565b6000600160008473ffffffffffffffffffffffffffffffffffffffff1673ffffffffffffffffffffffffffffffffffffffff16815260200190815260200160002060008373ffffffffffffffffffffffffffffffffffffffff1673ffffffffffffffffffffffffffffffffffffffff16815260200190815260200160002060009054906101000a900460ff16905092915050565b610c96610dd2565b73ffffffffffffffffffffffffffffffffffffffff168573ffffffffffffffffffffffffffffffffffffffff161480610cdc5750610cdb85610cd6610dd2565b610bfa565b5b610d1b576040517f08c379a0000000000000000000000000000000000000000000000000000000008152600401610d129061270a565b60405180910390fd5b610d288585858585611417565b5050505050565b600360009054906101000a900473ffffffffffffffffffffffffffffffffffffffff1681565b60007f01ffc9a7000000000000000000000000000000000000000000000000000000007bffffffffffffffffffffffffffffffffffffffffffffffffffffffff1916827bffffffffffffffffffffffffffffffffffffffffffffffffffffffff1916149050919050565b8060029081610dce9190612c16565b5050565b600033905090565b8151835114610e1e576040517f08c379a0000000000000000000000000000000000000000000000000000000008152600401610e1590612d5a565b60405180910390fd5b600073ffffffffffffffffffffffffffffffffffffffff168473ffffffffffffffffffffffffffffffffffffffff1603610e8d576040517f08c379a0000000000000000000000000000000000000000000000000000000008152600401610e8490612dec565b60405180910390fd5b6000610e97610dd2565b9050610ea78187878787876116b2565b60005b8451811015611058576000858281518110610ec857610ec76129f3565b5b602002602001015190506000858381518110610ee757610ee66129f3565b5b60200260200101519050600080600084815260200190815260200160002060008b73ffffffffffffffffffffffffffffffffffffffff1673ffffffffffffffffffffffffffffffffffffffff16815260200190815260200160002054905081811015610f88576040517f08c379a0000000000000000000000000000000000000000000000000000000008152600401610f7f90612e7e565b60405180910390fd5b81810360008085815260200190815260200160002060008c73ffffffffffffffffffffffffffffffffffffffff1673ffffffffffffffffffffffffffffffffffffffff168152602001908152602001600020819055508160008085815260200190815260200160002060008b73ffffffffffffffffffffffffffffffffffffffff1673ffffffffffffffffffffffffffffffffffffffff168152602001908152602001600020600082825461103d91906127c5565b925050819055505050508061105190612a22565b9050610eaa565b508473ffffffffffffffffffffffffffffffffffffffff168673ffffffffffffffffffffffffffffffffffffffff168273ffffffffffffffffffffffffffffffffffffffff167f4a39dc06d4c0dbc64b70af90fd698a233a518aa5d07e595d983b8c0526c8f7fb87876040516110cf929190612e9e565b60405180910390a46110e58187878787876116c8565b6110f38187878787876116d0565b505050505050565b600073ffffffffffffffffffffffffffffffffffffffff168473ffffffffffffffffffffffffffffffffffffffff160361116a576040517f08c379a000000000000000000000000000000000000000000000000000000000815260040161116190612f47565b60405180910390fd5b6000611174610dd2565b90506000611181856118a7565b9050600061118e856118a7565b905061119f836000898585896116b2565b8460008088815260200190815260200160002060008973ffffffffffffffffffffffffffffffffffffffff1673ffffffffffffffffffffffffffffffffffffffff16815260200190815260200160002060008282546111fe91906127c5565b925050819055508673ffffffffffffffffffffffffffffffffffffffff16600073ffffffffffffffffffffffffffffffffffffffff168473ffffffffffffffffffffffffffffffffffffffff167fc3d58168c5ae7397731d063d5bbf3d657854427343f4c083240f7aacaa2d0f62898960405161127c929190612f67565b60405180910390a4611293836000898585896116c8565b6112a283600089898989611921565b50505050505050565b8173ffffffffffffffffffffffffffffffffffffffff168373ffffffffffffffffffffffffffffffffffffffff1603611319576040517f08c379a000000000000000000000000000000000000000000000000000000000815260040161131090613002565b60405180910390fd5b80600160008573ffffffffffffffffffffffffffffffffffffffff1673ffffffffffffffffffffffffffffffffffffffff16815260200190815260200160002060008473ffffffffffffffffffffffffffffffffffffffff1673ffffffffffffffffffffffffffffffffffffffff16815260200190815260200160002060006101000a81548160ff0219169083151502179055508173ffffffffffffffffffffffffffffffffffffffff168373ffffffffffffffffffffffffffffffffffffffff167f17307eab39ab6107e8899845ad3d59bd9653f200f220920489ca2b5937696c318360405161140a9190611cd5565b60405180910390a3505050565b600073ffffffffffffffffffffffffffffffffffffffff168473ffffffffffffffffffffffffffffffffffffffff1603611486576040517f08c379a000000000000000000000000000000000000000000000000000000000815260040161147d90612dec565b60405180910390fd5b6000611490610dd2565b9050600061149d856118a7565b905060006114aa856118a7565b90506114ba8389898585896116b2565b600080600088815260200190815260200160002060008a73ffffffffffffffffffffffffffffffffffffffff1673ffffffffffffffffffffffffffffffffffffffff16815260200190815260200160002054905085811015611551576040517f08c379a000000000000000000000000000000000000000000000000000000000815260040161154890612e7e565b60405180910390fd5b85810360008089815260200190815260200160002060008b73ffffffffffffffffffffffffffffffffffffffff1673ffffffffffffffffffffffffffffffffffffffff168152602001908152602001600020819055508560008089815260200190815260200160002060008a73ffffffffffffffffffffffffffffffffffffffff1673ffffffffffffffffffffffffffffffffffffffff168152602001908152602001600020600082825461160691906127c5565b925050819055508773ffffffffffffffffffffffffffffffffffffffff168973ffffffffffffffffffffffffffffffffffffffff168573ffffffffffffffffffffffffffffffffffffffff167fc3d58168c5ae7397731d063d5bbf3d657854427343f4c083240f7aacaa2d0f628a8a604051611683929190612f67565b60405180910390a4611699848a8a86868a6116c8565b6116a7848a8a8a8a8a611921565b505050505050505050565b6116c0868686868686611af8565b505050505050565b505050505050565b6116ef8473ffffffffffffffffffffffffffffffffffffffff16611b00565b1561189f578373ffffffffffffffffffffffffffffffffffffffff1663bc197c8187878686866040518663ffffffff1660e01b8152600401611735959493929190613077565b6020604051808303816000875af192505050801561177157506040513d601f19601f8201168201806040525081019061176e91906130f4565b60015b6118165761177d61312e565b806308c379a0036117d95750611791613150565b8061179c57506117db565b806040517f08c379a00000000000000000000000000000000000000000000000000000000081526004016117d09190611f2b565b60405180910390fd5b505b6040517f08c379a000000000000000000000000000000000000000000000000000000000815260040161180d90613252565b60405180910390fd5b63bc197c8160e01b7bffffffffffffffffffffffffffffffffffffffffffffffffffffffff1916817bffffffffffffffffffffffffffffffffffffffffffffffffffffffff19161461189d576040517f08c379a0000000000000000000000000000000000000000000000000000000008152600401611894906132e4565b60405180910390fd5b505b505050505050565b60606000600167ffffffffffffffff8111156118c6576118c5611d0b565b5b6040519080825280602002602001820160405280156118f45781602001602082028036833780820191505090505b509050828160008151811061190c5761190b6129f3565b5b60200260200101818152505080915050919050565b6119408473ffffffffffffffffffffffffffffffffffffffff16611b00565b15611af0578373ffffffffffffffffffffffffffffffffffffffff1663f23a6e6187878686866040518663ffffffff1660e01b8152600401611986959493929190613304565b6020604051808303816000875af19250505080156119c257506040513d601f19601f820116820180604052508101906119bf91906130f4565b60015b611a67576119ce61312e565b806308c379a003611a2a57506119e2613150565b806119ed5750611a2c565b806040517f08c379a0000000000000000000000000000000000000000000000000000000008152600401611a219190611f2b565b60405180910390fd5b505b6040517f08c379a0000000000000000000000000000000000000000000000000000000008152600401611a5e90613252565b60405180910390fd5b63f23a6e6160e01b7bffffffffffffffffffffffffffffffffffffffffffffffffffffffff1916817bffffffffffffffffffffffffffffffffffffffffffffffffffffffff191614611aee576040517f08c379a0000000000000000000000000000000000000000000000000000000008152600401611ae5906132e4565b60405180910390fd5b505b505050505050565b505050505050565b6000808273ffffffffffffffffffffffffffffffffffffffff163b119050919050565b6000604051905090565b600080fd5b600080fd5b600073ffffffffffffffffffffffffffffffffffffffff82169050919050565b6000611b6282611b37565b9050919050565b611b7281611b57565b8114611b7d57600080fd5b50565b600081359050611b8f81611b69565b92915050565b6000819050919050565b611ba881611b95565b8114611bb357600080fd5b50565b600081359050611bc581611b9f565b92915050565b60008060408385031215611be257611be1611b2d565b5b6000611bf085828601611b80565b9250506020611c0185828601611bb6565b9150509250929050565b611c1481611b95565b82525050565b6000602082019050611c2f6000830184611c0b565b92915050565b60007fffffffff0000000000000000000000000000000000000000000000000000000082169050919050565b611c6a81611c35565b8114611c7557600080fd5b50565b600081359050611c8781611c61565b92915050565b600060208284031215611ca357611ca2611b2d565b5b6000611cb184828501611c78565b91505092915050565b60008115159050919050565b611ccf81611cba565b82525050565b6000602082019050611cea6000830184611cc6565b92915050565b600080fd5b600080fd5b6000601f19601f8301169050919050565b7f4e487b7100000000000000000000000000000000000000000000000000000000600052604160045260246000fd5b611d4382611cfa565b810181811067ffffffffffffffff82111715611d6257611d61611d0b565b5b80604052505050565b6000611d75611b23565b9050611d818282611d3a565b919050565b600067ffffffffffffffff821115611da157611da0611d0b565b5b611daa82611cfa565b9050602081019050919050565b82818337600083830152505050565b6000611dd9611dd484611d86565b611d6b565b905082815260208101848484011115611df557611df4611cf5565b5b611e00848285611db7565b509392505050565b600082601f830112611e1d57611e1c611cf0565b5b8135611e2d848260208601611dc6565b91505092915050565b600060208284031215611e4c57611e4b611b2d565b5b600082013567ffffffffffffffff811115611e6a57611e69611b32565b5b611e7684828501611e08565b91505092915050565b600060208284031215611e9557611e94611b2d565b5b6000611ea384828501611bb6565b91505092915050565b600081519050919050565b600082825260208201905092915050565b60005b83811015611ee6578082015181840152602081019050611ecb565b60008484015250505050565b6000611efd82611eac565b611f078185611eb7565b9350611f17818560208601611ec8565b611f2081611cfa565b840191505092915050565b60006020820190508181036000830152611f458184611ef2565b905092915050565b600067ffffffffffffffff821115611f6857611f67611d0b565b5b602082029050602081019050919050565b600080fd5b6000611f91611f8c84611f4d565b611d6b565b90508083825260208201905060208402830185811115611fb457611fb3611f79565b5b835b81811015611fdd5780611fc98882611bb6565b845260208401935050602081019050611fb6565b5050509392505050565b600082601f830112611ffc57611ffb611cf0565b5b813561200c848260208601611f7e565b91505092915050565b600067ffffffffffffffff8211156120305761202f611d0b565b5b61203982611cfa565b9050602081019050919050565b600061205961205484612015565b611d6b565b90508281526020810184848401111561207557612074611cf5565b5b612080848285611db7565b509392505050565b600082601f83011261209d5761209c611cf0565b5b81356120ad848260208601612046565b91505092915050565b600080600080600060a086880312156120d2576120d1611b2d565b5b60006120e088828901611b80565b95505060206120f188828901611b80565b945050604086013567ffffffffffffffff81111561211257612111611b32565b5b61211e88828901611fe7565b935050606086013567ffffffffffffffff81111561213f5761213e611b32565b5b61214b88828901611fe7565b925050608086013567ffffffffffffffff81111561216c5761216b611b32565b5b61217888828901612088565b9150509295509295909350565b600067ffffffffffffffff8211156121a05761219f611d0b565b5b602082029050602081019050919050565b60006121c46121bf84612185565b611d6b565b905080838252602082019050602084028301858111156121e7576121e6611f79565b5b835b8181101561221057806121fc8882611b80565b8452602084019350506020810190506121e9565b5050509392505050565b600082601f83011261222f5761222e611cf0565b5b813561223f8482602086016121b1565b91505092915050565b6000806040838503121561225f5761225e611b2d565b5b600083013567ffffffffffffffff81111561227d5761227c611b32565b5b6122898582860161221a565b925050602083013567ffffffffffffffff8111156122aa576122a9611b32565b5b6122b685828601611fe7565b9150509250929050565b600081519050919050565b600082825260208201905092915050565b6000819050602082019050919050565b6122f581611b95565b82525050565b600061230783836122ec565b60208301905092915050565b6000602082019050919050565b600061232b826122c0565b61233581856122cb565b9350612340836122dc565b8060005b8381101561237157815161235888826122fb565b975061236383612313565b925050600181019050612344565b5085935050505092915050565b600060208201905081810360008301526123988184612320565b905092915050565b6000602082840312156123b6576123b5611b2d565b5b60006123c484828501611b80565b91505092915050565b6123d681611b57565b82525050565b60006020820190506123f160008301846123cd565b92915050565b61240081611cba565b811461240b57600080fd5b50565b60008135905061241d816123f7565b92915050565b6000806040838503121561243a57612439611b2d565b5b600061244885828601611b80565b92505060206124598582860161240e565b9150509250929050565b6000806040838503121561247a57612479611b2d565b5b600061248885828601611b80565b925050602061249985828601611b80565b9150509250929050565b600080600080600060a086880312156124bf576124be611b2d565b5b60006124cd88828901611b80565b95505060206124de88828901611b80565b94505060406124ef88828901611bb6565b935050606061250088828901611bb6565b925050608086013567ffffffffffffffff81111561252157612520611b32565b5b61252d88828901612088565b9150509295509295909350565b7f455243313135353a2061646472657373207a65726f206973206e6f742061207660008201527f616c6964206f776e657200000000000000000000000000000000000000000000602082015250565b6000612596602a83611eb7565b91506125a18261253a565b604082019050919050565b600060208201905081810360008301526125c581612589565b9050919050565b7f6f6e6c792061646d696e00000000000000000000000000000000000000000000600082015250565b6000612602600a83611eb7565b915061260d826125cc565b602082019050919050565b60006020820190508181036000830152612631816125f5565b9050919050565b7f4e487b7100000000000000000000000000000000000000000000000000000000600052602260045260246000fd5b6000600282049050600182168061267f57607f821691505b60208210810361269257612691612638565b5b50919050565b7f455243313135353a2063616c6c6572206973206e6f7420746f6b656e206f776e60008201527f6572206f7220617070726f766564000000000000000000000000000000000000602082015250565b60006126f4602e83611eb7565b91506126ff82612698565b604082019050919050565b60006020820190508181036000830152612723816126e7565b9050919050565b7f506179207265717569726564206d696e696d756d000000000000000000000000600082015250565b6000612760601483611eb7565b915061276b8261272a565b602082019050919050565b6000602082019050818103600083015261278f81612753565b9050919050565b7f4e487b7100000000000000000000000000000000000000000000000000000000600052601160045260246000fd5b60006127d082611b95565b91506127db83611b95565b92508282019050808211156127f3576127f2612796565b5b92915050565b7f4e6f7420656e6f75756768207469636b657473206c656674206f7220736f6c6460008201527f206f757400000000000000000000000000000000000000000000000000000000602082015250565b6000612855602483611eb7565b9150612860826127f9565b604082019050919050565b6000602082019050818103600083015261288481612848565b9050919050565b600061289682611b95565b91506128a183611b95565b92508282026128af81611b95565b915082820484148315176128c6576128c5612796565b5b5092915050565b7f4e487b7100000000000000000000000000000000000000000000000000000000600052601260045260246000fd5b600061290782611b95565b915061291283611b95565b925082612922576129216128cd565b5b828204905092915050565b600061293882611b95565b915061294383611b95565b925082820390508181111561295b5761295a612796565b5b92915050565b7f455243313135353a206163636f756e747320616e6420696473206c656e67746860008201527f206d69736d617463680000000000000000000000000000000000000000000000602082015250565b60006129bd602983611eb7565b91506129c882612961565b604082019050919050565b600060208201905081810360008301526129ec816129b0565b9050919050565b7f4e487b7100000000000000000000000000000000000000000000000000000000600052603260045260246000fd5b6000612a2d82611b95565b91507fffffffffffffffffffffffffffffffffffffffffffffffffffffffffffffffff8203612a5f57612a5e612796565b5b600182019050919050565b60008190508160005260206000209050919050565b60006020601f8301049050919050565b600082821b905092915050565b600060088302612acc7fffffffffffffffffffffffffffffffffffffffffffffffffffffffffffffffff82612a8f565b612ad68683612a8f565b95508019841693508086168417925050509392505050565b6000819050919050565b6000612b13612b0e612b0984611b95565b612aee565b611b95565b9050919050565b6000819050919050565b612b2d83612af8565b612b41612b3982612b1a565b848454612a9c565b825550505050565b600090565b612b56612b49565b612b61818484612b24565b505050565b5b81811015612b8557612b7a600082612b4e565b600181019050612b67565b5050565b601f821115612bca57612b9b81612a6a565b612ba484612a7f565b81016020851015612bb3578190505b612bc7612bbf85612a7f565b830182612b66565b50505b505050565b600082821c905092915050565b6000612bed60001984600802612bcf565b1980831691505092915050565b6000612c068383612bdc565b9150826002028217905092915050565b612c1f82611eac565b67ffffffffffffffff811115612c3857612c37611d0b565b5b612c428254612667565b612c4d828285612b89565b600060209050601f831160018114612c805760008415612c6e578287015190505b612c788582612bfa565b865550612ce0565b601f198416612c8e86612a6a565b60005b82811015612cb657848901518255600182019150602085019450602081019050612c91565b86831015612cd35784890151612ccf601f891682612bdc565b8355505b6001600288020188555050505b505050505050565b7f455243313135353a2069647320616e6420616d6f756e7473206c656e6774682060008201527f6d69736d61746368000000000000000000000000000000000000000000000000602082015250565b6000612d44602883611eb7565b9150612d4f82612ce8565b604082019050919050565b60006020820190508181036000830152612d7381612d37565b9050919050565b7f455243313135353a207472616e7366657220746f20746865207a65726f20616460008201527f6472657373000000000000000000000000000000000000000000000000000000602082015250565b6000612dd6602583611eb7565b9150612de182612d7a565b604082019050919050565b60006020820190508181036000830152612e0581612dc9565b9050919050565b7f455243313135353a20696e73756666696369656e742062616c616e636520666f60008201527f72207472616e7366657200000000000000000000000000000000000000000000602082015250565b6000612e68602a83611eb7565b9150612e7382612e0c565b604082019050919050565b60006020820190508181036000830152612e9781612e5b565b9050919050565b60006040820190508181036000830152612eb88185612320565b90508181036020830152612ecc8184612320565b90509392505050565b7f455243313135353a206d696e7420746f20746865207a65726f2061646472657360008201527f7300000000000000000000000000000000000000000000000000000000000000602082015250565b6000612f31602183611eb7565b9150612f3c82612ed5565b604082019050919050565b60006020820190508181036000830152612f6081612f24565b9050919050565b6000604082019050612f7c6000830185611c0b565b612f896020830184611c0b565b9392505050565b7f455243313135353a2073657474696e6720617070726f76616c2073746174757360008201527f20666f722073656c660000000000000000000000000000000000000000000000602082015250565b6000612fec602983611eb7565b9150612ff782612f90565b604082019050919050565b6000602082019050818103600083015261301b81612fdf565b9050919050565b600081519050919050565b600082825260208201905092915050565b600061304982613022565b613053818561302d565b9350613063818560208601611ec8565b61306c81611cfa565b840191505092915050565b600060a08201905061308c60008301886123cd565b61309960208301876123cd565b81810360408301526130ab8186612320565b905081810360608301526130bf8185612320565b905081810360808301526130d3818461303e565b90509695505050505050565b6000815190506130ee81611c61565b92915050565b60006020828403121561310a57613109611b2d565b5b6000613118848285016130df565b91505092915050565b60008160e01c9050919050565b600060033d111561314d5760046000803e61314a600051613121565b90505b90565b600060443d106131dd57613162611b23565b60043d036004823e80513d602482011167ffffffffffffffff8211171561318a5750506131dd565b808201805167ffffffffffffffff8111156131a857505050506131dd565b80602083010160043d0385018111156131c55750505050506131dd565b6131d482602001850186611d3a565b82955050505050505b90565b7f455243313135353a207472616e7366657220746f206e6f6e2d4552433131353560008201527f526563656976657220696d706c656d656e746572000000000000000000000000602082015250565b600061323c603483611eb7565b9150613247826131e0565b604082019050919050565b6000602082019050818103600083015261326b8161322f565b9050919050565b7f455243313135353a204552433131353552656365697665722072656a6563746560008201527f6420746f6b656e73000000000000000000000000000000000000000000000000602082015250565b60006132ce602883611eb7565b91506132d982613272565b604082019050919050565b600060208201905081810360008301526132fd816132c1565b9050919050565b600060a08201905061331960008301886123cd565b61332660208301876123cd565b6133336040830186611c0b565b6133406060830185611c0b565b8181036080830152613352818461303e565b9050969550505050505056fea26469706673582212203b3291a339dcb6117b9d106f3c06d1c802822fcb59eee36dc53d685ca457f63564736f6c63430008110033",
  "linkReferences": {},
  "deployedLinkReferences": {}
}