{
  "_format": "hh-sol-artifact-1",
  "contractName": "DegenTickets",
  "sourceName": "contracts/TicketsERC1155.sol",
  "abi": [
    {
      "inputs": [
        {
          "internalType": "string",
          "name": "tokenUri",
          "type": "string"
        },
        {
          "internalType": "uint256",
          "name": "_ticketPrice",
          "type": "uint256"
        },
        {
          "internalType": "uint256",
          "name": "_bandTicketSalesPercent",
          "type": "uint256"
        },
        {
          "internalType": "address",
          "name": "_bandAddress",
          "type": "address"
        },
        {
          "internalType": "address",
          "name": "_venueAddress",
          "type": "address"
        },
        {
          "internalType": "uint256",
          "name": "_maxSupply",
          "type": "uint256"
        },
        {
          "internalType": "address",
          "name": "_escrowContract",
          "type": "address"
        }
      ],
      "stateMutability": "nonpayable",
      "type": "constructor"
    },
    {
      "anonymous": false,
      "inputs": [
        {
          "indexed": true,
          "internalType": "address",
          "name": "account",
          "type": "address"
        },
        {
          "indexed": true,
          "internalType": "address",
          "name": "operator",
          "type": "address"
        },
        {
          "indexed": false,
          "internalType": "bool",
          "name": "approved",
          "type": "bool"
        }
      ],
      "name": "ApprovalForAll",
      "type": "event"
    },
    {
      "anonymous": false,
      "inputs": [
        {
          "indexed": true,
          "internalType": "address",
          "name": "operator",
          "type": "address"
        },
        {
          "indexed": true,
          "internalType": "address",
          "name": "from",
          "type": "address"
        },
        {
          "indexed": true,
          "internalType": "address",
          "name": "to",
          "type": "address"
        },
        {
          "indexed": false,
          "internalType": "uint256[]",
          "name": "ids",
          "type": "uint256[]"
        },
        {
          "indexed": false,
          "internalType": "uint256[]",
          "name": "values",
          "type": "uint256[]"
        }
      ],
      "name": "TransferBatch",
      "type": "event"
    },
    {
      "anonymous": false,
      "inputs": [
        {
          "indexed": true,
          "internalType": "address",
          "name": "operator",
          "type": "address"
        },
        {
          "indexed": true,
          "internalType": "address",
          "name": "from",
          "type": "address"
        },
        {
          "indexed": true,
          "internalType": "address",
          "name": "to",
          "type": "address"
        },
        {
          "indexed": false,
          "internalType": "uint256",
          "name": "id",
          "type": "uint256"
        },
        {
          "indexed": false,
          "internalType": "uint256",
          "name": "value",
          "type": "uint256"
        }
      ],
      "name": "TransferSingle",
      "type": "event"
    },
    {
      "anonymous": false,
      "inputs": [
        {
          "indexed": false,
          "internalType": "string",
          "name": "value",
          "type": "string"
        },
        {
          "indexed": true,
          "internalType": "uint256",
          "name": "id",
          "type": "uint256"
        }
      ],
      "name": "URI",
      "type": "event"
    },
    {
      "inputs": [],
      "name": "BandAddress",
      "outputs": [
        {
          "internalType": "address",
          "name": "",
          "type": "address"
        }
      ],
      "stateMutability": "view",
      "type": "function"
    },
    {
      "inputs": [],
      "name": "VenueAddress",
      "outputs": [
        {
          "internalType": "address",
          "name": "",
          "type": "address"
        }
      ],
      "stateMutability": "view",
      "type": "function"
    },
    {
      "inputs": [],
      "name": "_getAllOwner",
      "outputs": [
        {
          "internalType": "address[]",
          "name": "",
          "type": "address[]"
        }
      ],
      "stateMutability": "view",
      "type": "function"
    },
    {
      "inputs": [],
      "name": "admin",
      "outputs": [
        {
          "internalType": "address",
          "name": "",
          "type": "address"
        }
      ],
      "stateMutability": "view",
      "type": "function"
    },
    {
      "inputs": [
        {
          "internalType": "address",
          "name": "account",
          "type": "address"
        },
        {
          "internalType": "uint256",
          "name": "id",
          "type": "uint256"
        }
      ],
      "name": "balanceOf",
      "outputs": [
        {
          "internalType": "uint256",
          "name": "",
          "type": "uint256"
        }
      ],
      "stateMutability": "view",
      "type": "function"
    },
    {
      "inputs": [
        {
          "internalType": "address[]",
          "name": "accounts",
          "type": "address[]"
        },
        {
          "internalType": "uint256[]",
          "name": "ids",
          "type": "uint256[]"
        }
      ],
      "name": "balanceOfBatch",
      "outputs": [
        {
          "internalType": "uint256[]",
          "name": "",
          "type": "uint256[]"
        }
      ],
      "stateMutability": "view",
      "type": "function"
    },
    {
      "inputs": [],
      "name": "bandTicketSalesPercent",
      "outputs": [
        {
          "internalType": "uint256",
          "name": "",
          "type": "uint256"
        }
      ],
      "stateMutability": "view",
      "type": "function"
    },
    {
      "inputs": [
        {
          "internalType": "uint256",
          "name": "amount",
          "type": "uint256"
        }
      ],
      "name": "buyEscrowTickets",
      "outputs": [],
      "stateMutability": "payable",
      "type": "function"
    },
    {
      "inputs": [],
      "name": "cancelShow",
      "outputs": [],
      "stateMutability": "nonpayable",
      "type": "function"
    },
    {
      "inputs": [],
      "name": "date",
      "outputs": [
        {
          "internalType": "string",
          "name": "",
          "type": "string"
        }
      ],
      "stateMutability": "view",
      "type": "function"
    },
    {
      "inputs": [],
      "name": "escrowContract",
      "outputs": [
        {
          "internalType": "address",
          "name": "",
          "type": "address"
        }
      ],
      "stateMutability": "view",
      "type": "function"
    },
    {
      "inputs": [
        {
          "internalType": "address",
          "name": "account",
          "type": "address"
        },
        {
          "internalType": "address",
          "name": "operator",
          "type": "address"
        }
      ],
      "name": "isApprovedForAll",
      "outputs": [
        {
          "internalType": "bool",
          "name": "",
          "type": "bool"
        }
      ],
      "stateMutability": "view",
      "type": "function"
    },
    {
      "inputs": [],
      "name": "maxSupply",
      "outputs": [
        {
          "internalType": "uint256",
          "name": "",
          "type": "uint256"
        }
      ],
      "stateMutability": "view",
      "type": "function"
    },
    {
      "inputs": [],
      "name": "maxTixPerWallet",
      "outputs": [
        {
          "internalType": "uint256",
          "name": "",
          "type": "uint256"
        }
      ],
      "stateMutability": "view",
      "type": "function"
    },
    {
      "inputs": [],
      "name": "payBandAndVenue",
      "outputs": [],
      "stateMutability": "payable",
      "type": "function"
    },
    {
      "inputs": [
        {
          "internalType": "address",
          "name": "from",
          "type": "address"
        },
        {
          "internalType": "address",
          "name": "to",
          "type": "address"
        },
        {
          "internalType": "uint256[]",
          "name": "ids",
          "type": "uint256[]"
        },
        {
          "internalType": "uint256[]",
          "name": "amounts",
          "type": "uint256[]"
        },
        {
          "internalType": "bytes",
          "name": "data",
          "type": "bytes"
        }
      ],
      "name": "safeBatchTransferFrom",
      "outputs": [],
      "stateMutability": "nonpayable",
      "type": "function"
    },
    {
      "inputs": [
        {
          "internalType": "address",
          "name": "from",
          "type": "address"
        },
        {
          "internalType": "address",
          "name": "to",
          "type": "address"
        },
        {
          "internalType": "uint256",
          "name": "id",
          "type": "uint256"
        },
        {
          "internalType": "uint256",
          "name": "amount",
          "type": "uint256"
        },
        {
          "internalType": "bytes",
          "name": "data",
          "type": "bytes"
        }
      ],
      "name": "safeTransferFrom",
      "outputs": [],
      "stateMutability": "nonpayable",
      "type": "function"
    },
    {
      "inputs": [],
      "name": "sendRefund",
      "outputs": [],
      "stateMutability": "nonpayable",
      "type": "function"
    },
    {
      "inputs": [
        {
          "internalType": "address",
          "name": "operator",
          "type": "address"
        },
        {
          "internalType": "bool",
          "name": "approved",
          "type": "bool"
        }
      ],
      "name": "setApprovalForAll",
      "outputs": [],
      "stateMutability": "nonpayable",
      "type": "function"
    },
    {
      "inputs": [
        {
          "internalType": "string",
          "name": "newDate",
          "type": "string"
        }
      ],
      "name": "setDate",
      "outputs": [],
      "stateMutability": "nonpayable",
      "type": "function"
    },
    {
      "inputs": [
        {
          "internalType": "uint256",
          "name": "newLimit",
          "type": "uint256"
        }
      ],
      "name": "setMaxTicketPerWallet",
      "outputs": [],
      "stateMutability": "nonpayable",
      "type": "function"
    },
    {
      "inputs": [
        {
          "internalType": "string",
          "name": "newuri",
          "type": "string"
        }
      ],
      "name": "setURI",
      "outputs": [],
      "stateMutability": "nonpayable",
      "type": "function"
    },
    {
      "inputs": [],
      "name": "showCanceled",
      "outputs": [
        {
          "internalType": "bool",
          "name": "",
          "type": "bool"
        }
      ],
      "stateMutability": "view",
      "type": "function"
    },
    {
      "inputs": [
        {
          "internalType": "bytes4",
          "name": "interfaceId",
          "type": "bytes4"
        }
      ],
      "name": "supportsInterface",
      "outputs": [
        {
          "internalType": "bool",
          "name": "",
          "type": "bool"
        }
      ],
      "stateMutability": "view",
      "type": "function"
    },
    {
      "inputs": [],
      "name": "ticketCount",
      "outputs": [
        {
          "internalType": "uint256",
          "name": "",
          "type": "uint256"
        }
      ],
      "stateMutability": "view",
      "type": "function"
    },
    {
      "inputs": [
        {
          "internalType": "uint256",
          "name": "",
          "type": "uint256"
        }
      ],
      "name": "ticketOwners",
      "outputs": [
        {
          "internalType": "address",
          "name": "",
          "type": "address"
        }
      ],
      "stateMutability": "view",
      "type": "function"
    },
    {
      "inputs": [],
      "name": "ticketPrice",
      "outputs": [
        {
          "internalType": "uint256",
          "name": "",
          "type": "uint256"
        }
      ],
      "stateMutability": "view",
      "type": "function"
    },
    {
      "inputs": [
        {
          "internalType": "uint256",
          "name": "",
          "type": "uint256"
        }
      ],
      "name": "uri",
      "outputs": [
        {
          "internalType": "string",
          "name": "",
          "type": "string"
        }
      ],
      "stateMutability": "view",
      "type": "function"
    },
    {
      "stateMutability": "payable",
      "type": "receive"
    }
  ],
  "bytecode": "0x60806040526008600d553480156200001657600080fd5b50604051620045bf380380620045bf83398181016040528101906200003c9190620003bd565b866200004e816200017560201b60201c565b5033600360006101000a81548173ffffffffffffffffffffffffffffffffffffffff021916908373ffffffffffffffffffffffffffffffffffffffff16021790555085600b819055508460098190555083600760006101000a81548173ffffffffffffffffffffffffffffffffffffffff021916908373ffffffffffffffffffffffffffffffffffffffff16021790555082600860006101000a81548173ffffffffffffffffffffffffffffffffffffffff021916908373ffffffffffffffffffffffffffffffffffffffff1602179055508160058190555080600460006101000a81548173ffffffffffffffffffffffffffffffffffffffff021916908373ffffffffffffffffffffffffffffffffffffffff16021790555050505050505050620007b7565b8060029081620001869190620006d0565b5050565b6000604051905090565b600080fd5b600080fd5b600080fd5b600080fd5b6000601f19601f8301169050919050565b7f4e487b7100000000000000000000000000000000000000000000000000000000600052604160045260246000fd5b620001f382620001a8565b810181811067ffffffffffffffff82111715620002155762000214620001b9565b5b80604052505050565b60006200022a6200018a565b9050620002388282620001e8565b919050565b600067ffffffffffffffff8211156200025b576200025a620001b9565b5b6200026682620001a8565b9050602081019050919050565b60005b838110156200029357808201518184015260208101905062000276565b60008484015250505050565b6000620002b6620002b0846200023d565b6200021e565b905082815260208101848484011115620002d557620002d4620001a3565b5b620002e284828562000273565b509392505050565b600082601f8301126200030257620003016200019e565b5b8151620003148482602086016200029f565b91505092915050565b6000819050919050565b62000332816200031d565b81146200033e57600080fd5b50565b600081519050620003528162000327565b92915050565b600073ffffffffffffffffffffffffffffffffffffffff82169050919050565b6000620003858262000358565b9050919050565b620003978162000378565b8114620003a357600080fd5b50565b600081519050620003b7816200038c565b92915050565b600080600080600080600060e0888a031215620003df57620003de62000194565b5b600088015167ffffffffffffffff8111156200040057620003ff62000199565b5b6200040e8a828b01620002ea565b9750506020620004218a828b0162000341565b9650506040620004348a828b0162000341565b9550506060620004478a828b01620003a6565b94505060806200045a8a828b01620003a6565b93505060a06200046d8a828b0162000341565b92505060c0620004808a828b01620003a6565b91505092959891949750929550565b600081519050919050565b7f4e487b7100000000000000000000000000000000000000000000000000000000600052602260045260246000fd5b60006002820490506001821680620004e257607f821691505b602082108103620004f857620004f76200049a565b5b50919050565b60008190508160005260206000209050919050565b60006020601f8301049050919050565b600082821b905092915050565b600060088302620005627fffffffffffffffffffffffffffffffffffffffffffffffffffffffffffffffff8262000523565b6200056e868362000523565b95508019841693508086168417925050509392505050565b6000819050919050565b6000620005b1620005ab620005a5846200031d565b62000586565b6200031d565b9050919050565b6000819050919050565b620005cd8362000590565b620005e5620005dc82620005b8565b84845462000530565b825550505050565b600090565b620005fc620005ed565b62000609818484620005c2565b505050565b5b81811015620006315762000625600082620005f2565b6001810190506200060f565b5050565b601f82111562000680576200064a81620004fe565b620006558462000513565b8101602085101562000665578190505b6200067d620006748562000513565b8301826200060e565b50505b505050565b600082821c905092915050565b6000620006a56000198460080262000685565b1980831691505092915050565b6000620006c0838362000692565b9150826002028217905092915050565b620006db826200048f565b67ffffffffffffffff811115620006f757620006f6620001b9565b5b620007038254620004c9565b6200071082828562000635565b600060209050601f83116001811462000748576000841562000733578287015190505b6200073f8582620006b2565b865550620007af565b601f1984166200075886620004fe565b60005b8281101562000782578489015182556001820191506020850194506020810190506200075b565b86831015620007a257848901516200079e601f89168262000692565b8355505b6001600288020188555050505b505050505050565b613df880620007c76000396000f3fe6080604052600436106101ba5760003560e01c8063959933e8116100ec578063e146f7271161008a578063e985e9c511610064578063e985e9c5146105b4578063eb2dbcf6146105f1578063f242432a1461062e578063f851a44014610657576101c1565b8063e146f72714610554578063e42a96e71461055e578063e4cf68cb14610589576101c1565b8063cf968e58116100c6578063cf968e58146104a8578063cfbd900f146104d3578063d5abeb01146104fe578063db7ca24714610529576101c1565b8063959933e8146104295780639d451ed814610454578063a22cb4651461047f576101c1565b80631209b1f6116101595780634e1273f4116101335780634e1273f41461038e5780635b358a89146103cb57806365bc18a9146103f65780639205ab3c14610412576101c1565b80631209b1f61461030f5780632eb2c2d61461033a578063323046b114610363576101c1565b806303c0a3891161019557806303c0a389146102695780630442ee8a146102925780630b519f69146102bb5780630e89341c146102d2576101c1565b8062fdd58e146101c657806301ffc9a71461020357806302fe530514610240576101c1565b366101c157005b600080fd5b3480156101d257600080fd5b506101ed60048036038101906101e891906124fe565b610682565b6040516101fa919061254d565b60405180910390f35b34801561020f57600080fd5b5061022a600480360381019061022591906125c0565b61074a565b6040516102379190612608565b60405180910390f35b34801561024c57600080fd5b5061026760048036038101906102629190612769565b61082c565b005b34801561027557600080fd5b50610290600480360381019061028b9190612769565b61091e565b005b34801561029e57600080fd5b506102b960048036038101906102b491906127b2565b610a17565b005b3480156102c757600080fd5b506102d0610ab1565b005b3480156102de57600080fd5b506102f960048036038101906102f491906127b2565b610b5e565b604051610306919061285e565b60405180910390f35b34801561031b57600080fd5b50610324610bf2565b604051610331919061254d565b60405180910390f35b34801561034657600080fd5b50610361600480360381019061035c91906129e9565b610bf8565b005b34801561036f57600080fd5b50610378610c99565b604051610385919061285e565b60405180910390f35b34801561039a57600080fd5b506103b560048036038101906103b09190612b7b565b610d27565b6040516103c29190612cb1565b60405180910390f35b3480156103d757600080fd5b506103e0610e40565b6040516103ed919061254d565b60405180910390f35b610410600480360381019061040b91906127b2565b610e46565b005b34801561041e57600080fd5b5061042761108c565b005b34801561043557600080fd5b5061043e611159565b60405161044b9190612ce2565b60405180910390f35b34801561046057600080fd5b5061046961117f565b604051610476919061254d565b60405180910390f35b34801561048b57600080fd5b506104a660048036038101906104a19190612d29565b611185565b005b3480156104b457600080fd5b506104bd61119b565b6040516104ca9190612ce2565b60405180910390f35b3480156104df57600080fd5b506104e86111c1565b6040516104f5919061254d565b60405180910390f35b34801561050a57600080fd5b506105136111c7565b604051610520919061254d565b60405180910390f35b34801561053557600080fd5b5061053e6111cd565b60405161054b9190612608565b60405180910390f35b61055c6111e0565b005b34801561056a57600080fd5b50610573611357565b6040516105809190612ce2565b60405180910390f35b34801561059557600080fd5b5061059e61137d565b6040516105ab9190612e27565b60405180910390f35b3480156105c057600080fd5b506105db60048036038101906105d69190612e49565b6114ee565b6040516105e89190612608565b60405180910390f35b3480156105fd57600080fd5b50610618600480360381019061061391906127b2565b611582565b6040516106259190612ce2565b60405180910390f35b34801561063a57600080fd5b5061065560048036038101906106509190612e89565b6115c1565b005b34801561066357600080fd5b5061066c611662565b6040516106799190612ce2565b60405180910390f35b60008073ffffffffffffffffffffffffffffffffffffffff168373ffffffffffffffffffffffffffffffffffffffff16036106f2576040517f08c379a00000000000000000000000000000000000000000000000000000000081526004016106e990612f92565b60405180910390fd5b60008083815260200190815260200160002060008473ffffffffffffffffffffffffffffffffffffffff1673ffffffffffffffffffffffffffffffffffffffff16815260200190815260200160002054905092915050565b60007fd9b67a26000000000000000000000000000000000000000000000000000000007bffffffffffffffffffffffffffffffffffffffffffffffffffffffff1916827bffffffffffffffffffffffffffffffffffffffffffffffffffffffff1916148061081557507f0e89341c000000000000000000000000000000000000000000000000000000007bffffffffffffffffffffffffffffffffffffffffffffffffffffffff1916827bffffffffffffffffffffffffffffffffffffffffffffffffffffffff1916145b80610825575061082482611688565b5b9050919050565b600360009054906101000a900473ffffffffffffffffffffffffffffffffffffffff1673ffffffffffffffffffffffffffffffffffffffff163373ffffffffffffffffffffffffffffffffffffffff16146108bc576040517f08c379a00000000000000000000000000000000000000000000000000000000081526004016108b390612ffe565b60405180910390fd5b60001515600c60009054906101000a900460ff16151514610912576040517f08c379a00000000000000000000000000000000000000000000000000000000081526004016109099061306a565b60405180910390fd5b61091b816116f2565b50565b600360009054906101000a900473ffffffffffffffffffffffffffffffffffffffff1673ffffffffffffffffffffffffffffffffffffffff163373ffffffffffffffffffffffffffffffffffffffff16146109ae576040517f08c379a00000000000000000000000000000000000000000000000000000000081526004016109a590612ffe565b60405180910390fd5b60001515600c60009054906101000a900460ff16151514610a04576040517f08c379a00000000000000000000000000000000000000000000000000000000081526004016109fb9061306a565b60405180910390fd5b80600a9081610a139190613296565b5050565b600360009054906101000a900473ffffffffffffffffffffffffffffffffffffffff1673ffffffffffffffffffffffffffffffffffffffff163373ffffffffffffffffffffffffffffffffffffffff1614610aa7576040517f08c379a0000000000000000000000000000000000000000000000000000000008152600401610a9e90612ffe565b60405180910390fd5b80600d8190555050565b600360009054906101000a900473ffffffffffffffffffffffffffffffffffffffff1673ffffffffffffffffffffffffffffffffffffffff163373ffffffffffffffffffffffffffffffffffffffff1614610b41576040517f08c379a0000000000000000000000000000000000000000000000000000000008152600401610b3890612ffe565b60405180910390fd5b6001600c60006101000a81548160ff021916908315150217905550565b606060028054610b6d906130b9565b80601f0160208091040260200160405190810160405280929190818152602001828054610b99906130b9565b8015610be65780601f10610bbb57610100808354040283529160200191610be6565b820191906000526020600020905b815481529060010190602001808311610bc957829003601f168201915b50505050509050919050565b600b5481565b610c00611705565b73ffffffffffffffffffffffffffffffffffffffff168573ffffffffffffffffffffffffffffffffffffffff161480610c465750610c4585610c40611705565b6114ee565b5b610c85576040517f08c379a0000000000000000000000000000000000000000000000000000000008152600401610c7c906133da565b60405180910390fd5b610c92858585858561170d565b5050505050565b600a8054610ca6906130b9565b80601f0160208091040260200160405190810160405280929190818152602001828054610cd2906130b9565b8015610d1f5780601f10610cf457610100808354040283529160200191610d1f565b820191906000526020600020905b815481529060010190602001808311610d0257829003601f168201915b505050505081565b60608151835114610d6d576040517f08c379a0000000000000000000000000000000000000000000000000000000008152600401610d649061346c565b60405180910390fd5b6000835167ffffffffffffffff811115610d8a57610d8961263e565b5b604051908082528060200260200182016040528015610db85781602001602082028036833780820191505090505b50905060005b8451811015610e3557610e05858281518110610ddd57610ddc61348c565b5b6020026020010151858381518110610df857610df761348c565b5b6020026020010151610682565b828281518110610e1857610e1761348c565b5b60200260200101818152505080610e2e906134ea565b9050610dbe565b508091505092915050565b600d5481565b60001515600c60009054906101000a900460ff16151514610e9c576040517f08c379a0000000000000000000000000000000000000000000000000000000008152600401610e939061306a565b60405180910390fd5b80600d5481610eac336001610682565b610eb69190613532565b1115610ef7576040517f08c379a0000000000000000000000000000000000000000000000000000000008152600401610eee906135b2565b60405180910390fd5b600b54341015610f3c576040517f08c379a0000000000000000000000000000000000000000000000000000000008152600401610f339061361e565b60405180910390fd5b81600654610f4a9190613532565b60055411610f8d576040517f08c379a0000000000000000000000000000000000000000000000000000000008152600401610f849061368a565b60405180910390fd5b6000600190506060600460009054906101000a900473ffffffffffffffffffffffffffffffffffffffff1673ffffffffffffffffffffffffffffffffffffffff166108fc349081150290604051600060405180830381858888f19350505050158015610ffd573d6000803e3d6000fd5b5061100a33838684611a2e565b600e339080600181540180825580915050600190039060005260206000200160009091909190916101000a81548173ffffffffffffffffffffffffffffffffffffffff021916908373ffffffffffffffffffffffffffffffffffffffff160217905550836006600082825461107f9190613532565b9250508190555050505050565b600061109661137d565b905060005b81518110156111555760006110cb8383815181106110bc576110bb61348c565b5b60200260200101516001610682565b90506000600b54826110dd91906136aa565b90508383815181106110f2576110f161348c565b5b602002602001015173ffffffffffffffffffffffffffffffffffffffff166108fc829081150290604051600060405180830381858888f1935050505015801561113f573d6000803e3d6000fd5b505050808061114d906134ea565b91505061109b565b5050565b600760009054906101000a900473ffffffffffffffffffffffffffffffffffffffff1681565b60095481565b611197611190611705565b8383611bde565b5050565b600860009054906101000a900473ffffffffffffffffffffffffffffffffffffffff1681565b60065481565b60055481565b600c60009054906101000a900460ff1681565b600360009054906101000a900473ffffffffffffffffffffffffffffffffffffffff1673ffffffffffffffffffffffffffffffffffffffff163373ffffffffffffffffffffffffffffffffffffffff1614611270576040517f08c379a000000000000000000000000000000000000000000000000000000000815260040161126790612ffe565b60405180910390fd5b600060095447611280919061371b565b9050600760009054906101000a900473ffffffffffffffffffffffffffffffffffffffff1673ffffffffffffffffffffffffffffffffffffffff166108fc829081150290604051600060405180830381858888f193505050501580156112ea573d6000803e3d6000fd5b50600860009054906101000a900473ffffffffffffffffffffffffffffffffffffffff1673ffffffffffffffffffffffffffffffffffffffff166108fc479081150290604051600060405180830381858888f19350505050158015611353573d6000803e3d6000fd5b5050565b600460009054906101000a900473ffffffffffffffffffffffffffffffffffffffff1681565b60606000600e8054905067ffffffffffffffff8111156113a05761139f61263e565b5b6040519080825280602002602001820160405280156113ce5781602001602082028036833780820191505090505b509050600080600090505b600e805490508110156114e5576000611431600e83815481106113ff576113fe61348c565b5b9060005260206000200160009054906101000a900473ffffffffffffffffffffffffffffffffffffffff166001610682565b11156114d257600e818154811061144b5761144a61348c565b5b9060005260206000200160009054906101000a900473ffffffffffffffffffffffffffffffffffffffff168383815181106114895761148861348c565b5b602002602001019073ffffffffffffffffffffffffffffffffffffffff16908173ffffffffffffffffffffffffffffffffffffffff168152505081806114ce906134ea565b9250505b80806114dd906134ea565b9150506113d9565b50819250505090565b6000600160008473ffffffffffffffffffffffffffffffffffffffff1673ffffffffffffffffffffffffffffffffffffffff16815260200190815260200160002060008373ffffffffffffffffffffffffffffffffffffffff1673ffffffffffffffffffffffffffffffffffffffff16815260200190815260200160002060009054906101000a900460ff16905092915050565b600e818154811061159257600080fd5b906000526020600020016000915054906101000a900473ffffffffffffffffffffffffffffffffffffffff1681565b6115c9611705565b73ffffffffffffffffffffffffffffffffffffffff168573ffffffffffffffffffffffffffffffffffffffff16148061160f575061160e85611609611705565b6114ee565b5b61164e576040517f08c379a0000000000000000000000000000000000000000000000000000000008152600401611645906133da565b60405180910390fd5b61165b8585858585611d4a565b5050505050565b600360009054906101000a900473ffffffffffffffffffffffffffffffffffffffff1681565b60007f01ffc9a7000000000000000000000000000000000000000000000000000000007bffffffffffffffffffffffffffffffffffffffffffffffffffffffff1916827bffffffffffffffffffffffffffffffffffffffffffffffffffffffff1916149050919050565b80600290816117019190613296565b5050565b600033905090565b8151835114611751576040517f08c379a0000000000000000000000000000000000000000000000000000000008152600401611748906137be565b60405180910390fd5b600073ffffffffffffffffffffffffffffffffffffffff168473ffffffffffffffffffffffffffffffffffffffff16036117c0576040517f08c379a00000000000000000000000000000000000000000000000000000000081526004016117b790613850565b60405180910390fd5b60006117ca611705565b90506117da818787878787611fe5565b60005b845181101561198b5760008582815181106117fb576117fa61348c565b5b60200260200101519050600085838151811061181a5761181961348c565b5b60200260200101519050600080600084815260200190815260200160002060008b73ffffffffffffffffffffffffffffffffffffffff1673ffffffffffffffffffffffffffffffffffffffff168152602001908152602001600020549050818110156118bb576040517f08c379a00000000000000000000000000000000000000000000000000000000081526004016118b2906138e2565b60405180910390fd5b81810360008085815260200190815260200160002060008c73ffffffffffffffffffffffffffffffffffffffff1673ffffffffffffffffffffffffffffffffffffffff168152602001908152602001600020819055508160008085815260200190815260200160002060008b73ffffffffffffffffffffffffffffffffffffffff1673ffffffffffffffffffffffffffffffffffffffff16815260200190815260200160002060008282546119709190613532565b9250508190555050505080611984906134ea565b90506117dd565b508473ffffffffffffffffffffffffffffffffffffffff168673ffffffffffffffffffffffffffffffffffffffff168273ffffffffffffffffffffffffffffffffffffffff167f4a39dc06d4c0dbc64b70af90fd698a233a518aa5d07e595d983b8c0526c8f7fb8787604051611a02929190613902565b60405180910390a4611a18818787878787611ffb565b611a26818787878787612003565b505050505050565b600073ffffffffffffffffffffffffffffffffffffffff168473ffffffffffffffffffffffffffffffffffffffff1603611a9d576040517f08c379a0000000000000000000000000000000000000000000000000000000008152600401611a94906139ab565b60405180910390fd5b6000611aa7611705565b90506000611ab4856121da565b90506000611ac1856121da565b9050611ad283600089858589611fe5565b8460008088815260200190815260200160002060008973ffffffffffffffffffffffffffffffffffffffff1673ffffffffffffffffffffffffffffffffffffffff1681526020019081526020016000206000828254611b319190613532565b925050819055508673ffffffffffffffffffffffffffffffffffffffff16600073ffffffffffffffffffffffffffffffffffffffff168473ffffffffffffffffffffffffffffffffffffffff167fc3d58168c5ae7397731d063d5bbf3d657854427343f4c083240f7aacaa2d0f628989604051611baf9291906139cb565b60405180910390a4611bc683600089858589611ffb565b611bd583600089898989612254565b50505050505050565b8173ffffffffffffffffffffffffffffffffffffffff168373ffffffffffffffffffffffffffffffffffffffff1603611c4c576040517f08c379a0000000000000000000000000000000000000000000000000000000008152600401611c4390613a66565b60405180910390fd5b80600160008573ffffffffffffffffffffffffffffffffffffffff1673ffffffffffffffffffffffffffffffffffffffff16815260200190815260200160002060008473ffffffffffffffffffffffffffffffffffffffff1673ffffffffffffffffffffffffffffffffffffffff16815260200190815260200160002060006101000a81548160ff0219169083151502179055508173ffffffffffffffffffffffffffffffffffffffff168373ffffffffffffffffffffffffffffffffffffffff167f17307eab39ab6107e8899845ad3d59bd9653f200f220920489ca2b5937696c3183604051611d3d9190612608565b60405180910390a3505050565b600073ffffffffffffffffffffffffffffffffffffffff168473ffffffffffffffffffffffffffffffffffffffff1603611db9576040517f08c379a0000000000000000000000000000000000000000000000000000000008152600401611db090613850565b60405180910390fd5b6000611dc3611705565b90506000611dd0856121da565b90506000611ddd856121da565b9050611ded838989858589611fe5565b600080600088815260200190815260200160002060008a73ffffffffffffffffffffffffffffffffffffffff1673ffffffffffffffffffffffffffffffffffffffff16815260200190815260200160002054905085811015611e84576040517f08c379a0000000000000000000000000000000000000000000000000000000008152600401611e7b906138e2565b60405180910390fd5b85810360008089815260200190815260200160002060008b73ffffffffffffffffffffffffffffffffffffffff1673ffffffffffffffffffffffffffffffffffffffff168152602001908152602001600020819055508560008089815260200190815260200160002060008a73ffffffffffffffffffffffffffffffffffffffff1673ffffffffffffffffffffffffffffffffffffffff1681526020019081526020016000206000828254611f399190613532565b925050819055508773ffffffffffffffffffffffffffffffffffffffff168973ffffffffffffffffffffffffffffffffffffffff168573ffffffffffffffffffffffffffffffffffffffff167fc3d58168c5ae7397731d063d5bbf3d657854427343f4c083240f7aacaa2d0f628a8a604051611fb69291906139cb565b60405180910390a4611fcc848a8a86868a611ffb565b611fda848a8a8a8a8a612254565b505050505050505050565b611ff386868686868661242b565b505050505050565b505050505050565b6120228473ffffffffffffffffffffffffffffffffffffffff16612433565b156121d2578373ffffffffffffffffffffffffffffffffffffffff1663bc197c8187878686866040518663ffffffff1660e01b8152600401612068959493929190613adb565b6020604051808303816000875af19250505080156120a457506040513d601f19601f820116820180604052508101906120a19190613b58565b60015b612149576120b0613b92565b806308c379a00361210c57506120c4613bb4565b806120cf575061210e565b806040517f08c379a0000000000000000000000000000000000000000000000000000000008152600401612103919061285e565b60405180910390fd5b505b6040517f08c379a000000000000000000000000000000000000000000000000000000000815260040161214090613cb6565b60405180910390fd5b63bc197c8160e01b7bffffffffffffffffffffffffffffffffffffffffffffffffffffffff1916817bffffffffffffffffffffffffffffffffffffffffffffffffffffffff1916146121d0576040517f08c379a00000000000000000000000000000000000000000000000000000000081526004016121c790613d48565b60405180910390fd5b505b505050505050565b60606000600167ffffffffffffffff8111156121f9576121f861263e565b5b6040519080825280602002602001820160405280156122275781602001602082028036833780820191505090505b509050828160008151811061223f5761223e61348c565b5b60200260200101818152505080915050919050565b6122738473ffffffffffffffffffffffffffffffffffffffff16612433565b15612423578373ffffffffffffffffffffffffffffffffffffffff1663f23a6e6187878686866040518663ffffffff1660e01b81526004016122b9959493929190613d68565b6020604051808303816000875af19250505080156122f557506040513d601f19601f820116820180604052508101906122f29190613b58565b60015b61239a57612301613b92565b806308c379a00361235d5750612315613bb4565b80612320575061235f565b806040517f08c379a0000000000000000000000000000000000000000000000000000000008152600401612354919061285e565b60405180910390fd5b505b6040517f08c379a000000000000000000000000000000000000000000000000000000000815260040161239190613cb6565b60405180910390fd5b63f23a6e6160e01b7bffffffffffffffffffffffffffffffffffffffffffffffffffffffff1916817bffffffffffffffffffffffffffffffffffffffffffffffffffffffff191614612421576040517f08c379a000000000000000000000000000000000000000000000000000000000815260040161241890613d48565b60405180910390fd5b505b505050505050565b505050505050565b6000808273ffffffffffffffffffffffffffffffffffffffff163b119050919050565b6000604051905090565b600080fd5b600080fd5b600073ffffffffffffffffffffffffffffffffffffffff82169050919050565b60006124958261246a565b9050919050565b6124a58161248a565b81146124b057600080fd5b50565b6000813590506124c28161249c565b92915050565b6000819050919050565b6124db816124c8565b81146124e657600080fd5b50565b6000813590506124f8816124d2565b92915050565b6000806040838503121561251557612514612460565b5b6000612523858286016124b3565b9250506020612534858286016124e9565b9150509250929050565b612547816124c8565b82525050565b6000602082019050612562600083018461253e565b92915050565b60007fffffffff0000000000000000000000000000000000000000000000000000000082169050919050565b61259d81612568565b81146125a857600080fd5b50565b6000813590506125ba81612594565b92915050565b6000602082840312156125d6576125d5612460565b5b60006125e4848285016125ab565b91505092915050565b60008115159050919050565b612602816125ed565b82525050565b600060208201905061261d60008301846125f9565b92915050565b600080fd5b600080fd5b6000601f19601f8301169050919050565b7f4e487b7100000000000000000000000000000000000000000000000000000000600052604160045260246000fd5b6126768261262d565b810181811067ffffffffffffffff821117156126955761269461263e565b5b80604052505050565b60006126a8612456565b90506126b4828261266d565b919050565b600067ffffffffffffffff8211156126d4576126d361263e565b5b6126dd8261262d565b9050602081019050919050565b82818337600083830152505050565b600061270c612707846126b9565b61269e565b90508281526020810184848401111561272857612727612628565b5b6127338482856126ea565b509392505050565b600082601f8301126127505761274f612623565b5b81356127608482602086016126f9565b91505092915050565b60006020828403121561277f5761277e612460565b5b600082013567ffffffffffffffff81111561279d5761279c612465565b5b6127a98482850161273b565b91505092915050565b6000602082840312156127c8576127c7612460565b5b60006127d6848285016124e9565b91505092915050565b600081519050919050565b600082825260208201905092915050565b60005b838110156128195780820151818401526020810190506127fe565b60008484015250505050565b6000612830826127df565b61283a81856127ea565b935061284a8185602086016127fb565b6128538161262d565b840191505092915050565b600060208201905081810360008301526128788184612825565b905092915050565b600067ffffffffffffffff82111561289b5761289a61263e565b5b602082029050602081019050919050565b600080fd5b60006128c46128bf84612880565b61269e565b905080838252602082019050602084028301858111156128e7576128e66128ac565b5b835b8181101561291057806128fc88826124e9565b8452602084019350506020810190506128e9565b5050509392505050565b600082601f83011261292f5761292e612623565b5b813561293f8482602086016128b1565b91505092915050565b600067ffffffffffffffff8211156129635761296261263e565b5b61296c8261262d565b9050602081019050919050565b600061298c61298784612948565b61269e565b9050828152602081018484840111156129a8576129a7612628565b5b6129b38482856126ea565b509392505050565b600082601f8301126129d0576129cf612623565b5b81356129e0848260208601612979565b91505092915050565b600080600080600060a08688031215612a0557612a04612460565b5b6000612a13888289016124b3565b9550506020612a24888289016124b3565b945050604086013567ffffffffffffffff811115612a4557612a44612465565b5b612a518882890161291a565b935050606086013567ffffffffffffffff811115612a7257612a71612465565b5b612a7e8882890161291a565b925050608086013567ffffffffffffffff811115612a9f57612a9e612465565b5b612aab888289016129bb565b9150509295509295909350565b600067ffffffffffffffff821115612ad357612ad261263e565b5b602082029050602081019050919050565b6000612af7612af284612ab8565b61269e565b90508083825260208201905060208402830185811115612b1a57612b196128ac565b5b835b81811015612b435780612b2f88826124b3565b845260208401935050602081019050612b1c565b5050509392505050565b600082601f830112612b6257612b61612623565b5b8135612b72848260208601612ae4565b91505092915050565b60008060408385031215612b9257612b91612460565b5b600083013567ffffffffffffffff811115612bb057612baf612465565b5b612bbc85828601612b4d565b925050602083013567ffffffffffffffff811115612bdd57612bdc612465565b5b612be98582860161291a565b9150509250929050565b600081519050919050565b600082825260208201905092915050565b6000819050602082019050919050565b612c28816124c8565b82525050565b6000612c3a8383612c1f565b60208301905092915050565b6000602082019050919050565b6000612c5e82612bf3565b612c688185612bfe565b9350612c7383612c0f565b8060005b83811015612ca4578151612c8b8882612c2e565b9750612c9683612c46565b925050600181019050612c77565b5085935050505092915050565b60006020820190508181036000830152612ccb8184612c53565b905092915050565b612cdc8161248a565b82525050565b6000602082019050612cf76000830184612cd3565b92915050565b612d06816125ed565b8114612d1157600080fd5b50565b600081359050612d2381612cfd565b92915050565b60008060408385031215612d4057612d3f612460565b5b6000612d4e858286016124b3565b9250506020612d5f85828601612d14565b9150509250929050565b600081519050919050565b600082825260208201905092915050565b6000819050602082019050919050565b612d9e8161248a565b82525050565b6000612db08383612d95565b60208301905092915050565b6000602082019050919050565b6000612dd482612d69565b612dde8185612d74565b9350612de983612d85565b8060005b83811015612e1a578151612e018882612da4565b9750612e0c83612dbc565b925050600181019050612ded565b5085935050505092915050565b60006020820190508181036000830152612e418184612dc9565b905092915050565b60008060408385031215612e6057612e5f612460565b5b6000612e6e858286016124b3565b9250506020612e7f858286016124b3565b9150509250929050565b600080600080600060a08688031215612ea557612ea4612460565b5b6000612eb3888289016124b3565b9550506020612ec4888289016124b3565b9450506040612ed5888289016124e9565b9350506060612ee6888289016124e9565b925050608086013567ffffffffffffffff811115612f0757612f06612465565b5b612f13888289016129bb565b9150509295509295909350565b7f455243313135353a2061646472657373207a65726f206973206e6f742061207660008201527f616c6964206f776e657200000000000000000000000000000000000000000000602082015250565b6000612f7c602a836127ea565b9150612f8782612f20565b604082019050919050565b60006020820190508181036000830152612fab81612f6f565b9050919050565b7f6f6e6c792061646d696e00000000000000000000000000000000000000000000600082015250565b6000612fe8600a836127ea565b9150612ff382612fb2565b602082019050919050565b6000602082019050818103600083015261301781612fdb565b9050919050565b7f73686f77207761732063616e63656c6c65640000000000000000000000000000600082015250565b60006130546012836127ea565b915061305f8261301e565b602082019050919050565b6000602082019050818103600083015261308381613047565b9050919050565b7f4e487b7100000000000000000000000000000000000000000000000000000000600052602260045260246000fd5b600060028204905060018216806130d157607f821691505b6020821081036130e4576130e361308a565b5b50919050565b60008190508160005260206000209050919050565b60006020601f8301049050919050565b600082821b905092915050565b60006008830261314c7fffffffffffffffffffffffffffffffffffffffffffffffffffffffffffffffff8261310f565b613156868361310f565b95508019841693508086168417925050509392505050565b6000819050919050565b600061319361318e613189846124c8565b61316e565b6124c8565b9050919050565b6000819050919050565b6131ad83613178565b6131c16131b98261319a565b84845461311c565b825550505050565b600090565b6131d66131c9565b6131e18184846131a4565b505050565b5b81811015613205576131fa6000826131ce565b6001810190506131e7565b5050565b601f82111561324a5761321b816130ea565b613224846130ff565b81016020851015613233578190505b61324761323f856130ff565b8301826131e6565b50505b505050565b600082821c905092915050565b600061326d6000198460080261324f565b1980831691505092915050565b6000613286838361325c565b9150826002028217905092915050565b61329f826127df565b67ffffffffffffffff8111156132b8576132b761263e565b5b6132c282546130b9565b6132cd828285613209565b600060209050601f83116001811461330057600084156132ee578287015190505b6132f8858261327a565b865550613360565b601f19841661330e866130ea565b60005b8281101561333657848901518255600182019150602085019450602081019050613311565b86831015613353578489015161334f601f89168261325c565b8355505b6001600288020188555050505b505050505050565b7f455243313135353a2063616c6c6572206973206e6f7420746f6b656e206f776e60008201527f6572206f7220617070726f766564000000000000000000000000000000000000602082015250565b60006133c4602e836127ea565b91506133cf82613368565b604082019050919050565b600060208201905081810360008301526133f3816133b7565b9050919050565b7f455243313135353a206163636f756e747320616e6420696473206c656e67746860008201527f206d69736d617463680000000000000000000000000000000000000000000000602082015250565b60006134566029836127ea565b9150613461826133fa565b604082019050919050565b6000602082019050818103600083015261348581613449565b9050919050565b7f4e487b7100000000000000000000000000000000000000000000000000000000600052603260045260246000fd5b7f4e487b7100000000000000000000000000000000000000000000000000000000600052601160045260246000fd5b60006134f5826124c8565b91507fffffffffffffffffffffffffffffffffffffffffffffffffffffffffffffffff8203613527576135266134bb565b5b600182019050919050565b600061353d826124c8565b9150613548836124c8565b92508282019050808211156135605761355f6134bb565b5b92915050565b7f6d6178207469636b657473207075726368617365640000000000000000000000600082015250565b600061359c6015836127ea565b91506135a782613566565b602082019050919050565b600060208201905081810360008301526135cb8161358f565b9050919050565b7f50617920666f7220746978000000000000000000000000000000000000000000600082015250565b6000613608600b836127ea565b9150613613826135d2565b602082019050919050565b60006020820190508181036000830152613637816135fb565b9050919050565b7f4e6f207469636b657473206c6566740000000000000000000000000000000000600082015250565b6000613674600f836127ea565b915061367f8261363e565b602082019050919050565b600060208201905081810360008301526136a381613667565b9050919050565b60006136b5826124c8565b91506136c0836124c8565b92508282026136ce816124c8565b915082820484148315176136e5576136e46134bb565b5b5092915050565b7f4e487b7100000000000000000000000000000000000000000000000000000000600052601260045260246000fd5b6000613726826124c8565b9150613731836124c8565b925082613741576137406136ec565b5b828204905092915050565b7f455243313135353a2069647320616e6420616d6f756e7473206c656e6774682060008201527f6d69736d61746368000000000000000000000000000000000000000000000000602082015250565b60006137a86028836127ea565b91506137b38261374c565b604082019050919050565b600060208201905081810360008301526137d78161379b565b9050919050565b7f455243313135353a207472616e7366657220746f20746865207a65726f20616460008201527f6472657373000000000000000000000000000000000000000000000000000000602082015250565b600061383a6025836127ea565b9150613845826137de565b604082019050919050565b600060208201905081810360008301526138698161382d565b9050919050565b7f455243313135353a20696e73756666696369656e742062616c616e636520666f60008201527f72207472616e7366657200000000000000000000000000000000000000000000602082015250565b60006138cc602a836127ea565b91506138d782613870565b604082019050919050565b600060208201905081810360008301526138fb816138bf565b9050919050565b6000604082019050818103600083015261391c8185612c53565b905081810360208301526139308184612c53565b90509392505050565b7f455243313135353a206d696e7420746f20746865207a65726f2061646472657360008201527f7300000000000000000000000000000000000000000000000000000000000000602082015250565b60006139956021836127ea565b91506139a082613939565b604082019050919050565b600060208201905081810360008301526139c481613988565b9050919050565b60006040820190506139e0600083018561253e565b6139ed602083018461253e565b9392505050565b7f455243313135353a2073657474696e6720617070726f76616c2073746174757360008201527f20666f722073656c660000000000000000000000000000000000000000000000602082015250565b6000613a506029836127ea565b9150613a5b826139f4565b604082019050919050565b60006020820190508181036000830152613a7f81613a43565b9050919050565b600081519050919050565b600082825260208201905092915050565b6000613aad82613a86565b613ab78185613a91565b9350613ac78185602086016127fb565b613ad08161262d565b840191505092915050565b600060a082019050613af06000830188612cd3565b613afd6020830187612cd3565b8181036040830152613b0f8186612c53565b90508181036060830152613b238185612c53565b90508181036080830152613b378184613aa2565b90509695505050505050565b600081519050613b5281612594565b92915050565b600060208284031215613b6e57613b6d612460565b5b6000613b7c84828501613b43565b91505092915050565b60008160e01c9050919050565b600060033d1115613bb15760046000803e613bae600051613b85565b90505b90565b600060443d10613c4157613bc6612456565b60043d036004823e80513d602482011167ffffffffffffffff82111715613bee575050613c41565b808201805167ffffffffffffffff811115613c0c5750505050613c41565b80602083010160043d038501811115613c29575050505050613c41565b613c388260200185018661266d565b82955050505050505b90565b7f455243313135353a207472616e7366657220746f206e6f6e2d4552433131353560008201527f526563656976657220696d706c656d656e746572000000000000000000000000602082015250565b6000613ca06034836127ea565b9150613cab82613c44565b604082019050919050565b60006020820190508181036000830152613ccf81613c93565b9050919050565b7f455243313135353a204552433131353552656365697665722072656a6563746560008201527f6420746f6b656e73000000000000000000000000000000000000000000000000602082015250565b6000613d326028836127ea565b9150613d3d82613cd6565b604082019050919050565b60006020820190508181036000830152613d6181613d25565b9050919050565b600060a082019050613d7d6000830188612cd3565b613d8a6020830187612cd3565b613d97604083018661253e565b613da4606083018561253e565b8181036080830152613db68184613aa2565b9050969550505050505056fea264697066735822122013c440dc4a4215c72908422413272c68109c79d9134a4b6a9f4b46dcf145d8a064736f6c63430008110033",
  "linkReferences": {},
  "deployedLinkReferences": {}
}