{
  "_format": "hh-sol-artifact-1",
  "contractName": "DegenTickets",
  "sourceName": "contracts/TicketsERC1155.sol",
  "abi": [
    {
      "inputs": [
        {
          "internalType": "string",
          "name": "tokenUri",
          "type": "string"
        },
        {
          "internalType": "uint256",
          "name": "_ticketPrice",
          "type": "uint256"
        },
        {
          "internalType": "uint256",
          "name": "_bandTicketSalesPercent",
          "type": "uint256"
        },
        {
          "internalType": "address",
          "name": "_bandAddress",
          "type": "address"
        },
        {
          "internalType": "address",
          "name": "_venueAddress",
          "type": "address"
        },
        {
          "internalType": "uint256",
          "name": "_maxSupply",
          "type": "uint256"
        },
        {
          "internalType": "address",
          "name": "_escrowContract",
          "type": "address"
        }
      ],
      "stateMutability": "nonpayable",
      "type": "constructor"
    },
    {
      "anonymous": false,
      "inputs": [
        {
          "indexed": true,
          "internalType": "address",
          "name": "account",
          "type": "address"
        },
        {
          "indexed": true,
          "internalType": "address",
          "name": "operator",
          "type": "address"
        },
        {
          "indexed": false,
          "internalType": "bool",
          "name": "approved",
          "type": "bool"
        }
      ],
      "name": "ApprovalForAll",
      "type": "event"
    },
    {
      "anonymous": false,
      "inputs": [
        {
          "indexed": true,
          "internalType": "address",
          "name": "operator",
          "type": "address"
        },
        {
          "indexed": true,
          "internalType": "address",
          "name": "from",
          "type": "address"
        },
        {
          "indexed": true,
          "internalType": "address",
          "name": "to",
          "type": "address"
        },
        {
          "indexed": false,
          "internalType": "uint256[]",
          "name": "ids",
          "type": "uint256[]"
        },
        {
          "indexed": false,
          "internalType": "uint256[]",
          "name": "values",
          "type": "uint256[]"
        }
      ],
      "name": "TransferBatch",
      "type": "event"
    },
    {
      "anonymous": false,
      "inputs": [
        {
          "indexed": true,
          "internalType": "address",
          "name": "operator",
          "type": "address"
        },
        {
          "indexed": true,
          "internalType": "address",
          "name": "from",
          "type": "address"
        },
        {
          "indexed": true,
          "internalType": "address",
          "name": "to",
          "type": "address"
        },
        {
          "indexed": false,
          "internalType": "uint256",
          "name": "id",
          "type": "uint256"
        },
        {
          "indexed": false,
          "internalType": "uint256",
          "name": "value",
          "type": "uint256"
        }
      ],
      "name": "TransferSingle",
      "type": "event"
    },
    {
      "anonymous": false,
      "inputs": [
        {
          "indexed": false,
          "internalType": "string",
          "name": "value",
          "type": "string"
        },
        {
          "indexed": true,
          "internalType": "uint256",
          "name": "id",
          "type": "uint256"
        }
      ],
      "name": "URI",
      "type": "event"
    },
    {
      "inputs": [],
      "name": "BandAddress",
      "outputs": [
        {
          "internalType": "address",
          "name": "",
          "type": "address"
        }
      ],
      "stateMutability": "view",
      "type": "function"
    },
    {
      "inputs": [],
      "name": "VenueAddress",
      "outputs": [
        {
          "internalType": "address",
          "name": "",
          "type": "address"
        }
      ],
      "stateMutability": "view",
      "type": "function"
    },
    {
      "inputs": [],
      "name": "_getAllOwner",
      "outputs": [
        {
          "internalType": "address[]",
          "name": "",
          "type": "address[]"
        }
      ],
      "stateMutability": "view",
      "type": "function"
    },
    {
      "inputs": [],
      "name": "admin",
      "outputs": [
        {
          "internalType": "address",
          "name": "",
          "type": "address"
        }
      ],
      "stateMutability": "view",
      "type": "function"
    },
    {
      "inputs": [
        {
          "internalType": "address",
          "name": "account",
          "type": "address"
        },
        {
          "internalType": "uint256",
          "name": "id",
          "type": "uint256"
        }
      ],
      "name": "balanceOf",
      "outputs": [
        {
          "internalType": "uint256",
          "name": "",
          "type": "uint256"
        }
      ],
      "stateMutability": "view",
      "type": "function"
    },
    {
      "inputs": [
        {
          "internalType": "address[]",
          "name": "accounts",
          "type": "address[]"
        },
        {
          "internalType": "uint256[]",
          "name": "ids",
          "type": "uint256[]"
        }
      ],
      "name": "balanceOfBatch",
      "outputs": [
        {
          "internalType": "uint256[]",
          "name": "",
          "type": "uint256[]"
        }
      ],
      "stateMutability": "view",
      "type": "function"
    },
    {
      "inputs": [],
      "name": "bandTicketSalesPercent",
      "outputs": [
        {
          "internalType": "uint256",
          "name": "",
          "type": "uint256"
        }
      ],
      "stateMutability": "view",
      "type": "function"
    },
    {
      "inputs": [
        {
          "internalType": "uint256",
          "name": "amount",
          "type": "uint256"
        }
      ],
      "name": "buyEscrowTickets",
      "outputs": [],
      "stateMutability": "payable",
      "type": "function"
    },
    {
      "inputs": [],
      "name": "cancelShow",
      "outputs": [],
      "stateMutability": "nonpayable",
      "type": "function"
    },
    {
      "inputs": [
        {
          "internalType": "address",
          "name": "newAdmin",
          "type": "address"
        }
      ],
      "name": "changeAdmin",
      "outputs": [],
      "stateMutability": "nonpayable",
      "type": "function"
    },
    {
      "inputs": [],
      "name": "date",
      "outputs": [
        {
          "internalType": "string",
          "name": "",
          "type": "string"
        }
      ],
      "stateMutability": "view",
      "type": "function"
    },
    {
      "inputs": [],
      "name": "escrowContract",
      "outputs": [
        {
          "internalType": "address",
          "name": "",
          "type": "address"
        }
      ],
      "stateMutability": "view",
      "type": "function"
    },
    {
      "inputs": [
        {
          "internalType": "address",
          "name": "account",
          "type": "address"
        },
        {
          "internalType": "address",
          "name": "operator",
          "type": "address"
        }
      ],
      "name": "isApprovedForAll",
      "outputs": [
        {
          "internalType": "bool",
          "name": "",
          "type": "bool"
        }
      ],
      "stateMutability": "view",
      "type": "function"
    },
    {
      "inputs": [],
      "name": "maxSupply",
      "outputs": [
        {
          "internalType": "uint256",
          "name": "",
          "type": "uint256"
        }
      ],
      "stateMutability": "view",
      "type": "function"
    },
    {
      "inputs": [],
      "name": "maxTixPerWallet",
      "outputs": [
        {
          "internalType": "uint256",
          "name": "",
          "type": "uint256"
        }
      ],
      "stateMutability": "view",
      "type": "function"
    },
    {
      "inputs": [],
      "name": "payBandAndVenue",
      "outputs": [],
      "stateMutability": "payable",
      "type": "function"
    },
    {
      "inputs": [
        {
          "internalType": "address",
          "name": "from",
          "type": "address"
        },
        {
          "internalType": "address",
          "name": "to",
          "type": "address"
        },
        {
          "internalType": "uint256[]",
          "name": "ids",
          "type": "uint256[]"
        },
        {
          "internalType": "uint256[]",
          "name": "amounts",
          "type": "uint256[]"
        },
        {
          "internalType": "bytes",
          "name": "data",
          "type": "bytes"
        }
      ],
      "name": "safeBatchTransferFrom",
      "outputs": [],
      "stateMutability": "nonpayable",
      "type": "function"
    },
    {
      "inputs": [
        {
          "internalType": "address",
          "name": "from",
          "type": "address"
        },
        {
          "internalType": "address",
          "name": "to",
          "type": "address"
        },
        {
          "internalType": "uint256",
          "name": "id",
          "type": "uint256"
        },
        {
          "internalType": "uint256",
          "name": "amount",
          "type": "uint256"
        },
        {
          "internalType": "bytes",
          "name": "data",
          "type": "bytes"
        }
      ],
      "name": "safeTransferFrom",
      "outputs": [],
      "stateMutability": "nonpayable",
      "type": "function"
    },
    {
      "inputs": [
        {
          "internalType": "address",
          "name": "operator",
          "type": "address"
        },
        {
          "internalType": "bool",
          "name": "approved",
          "type": "bool"
        }
      ],
      "name": "setApprovalForAll",
      "outputs": [],
      "stateMutability": "nonpayable",
      "type": "function"
    },
    {
      "inputs": [
        {
          "internalType": "string",
          "name": "newDate",
          "type": "string"
        }
      ],
      "name": "setDate",
      "outputs": [],
      "stateMutability": "nonpayable",
      "type": "function"
    },
    {
      "inputs": [
        {
          "internalType": "uint256",
          "name": "newLimit",
          "type": "uint256"
        }
      ],
      "name": "setMaxTicketPerWallet",
      "outputs": [],
      "stateMutability": "nonpayable",
      "type": "function"
    },
    {
      "inputs": [
        {
          "internalType": "string",
          "name": "newuri",
          "type": "string"
        }
      ],
      "name": "setURI",
      "outputs": [],
      "stateMutability": "nonpayable",
      "type": "function"
    },
    {
      "inputs": [],
      "name": "showCanceled",
      "outputs": [
        {
          "internalType": "bool",
          "name": "",
          "type": "bool"
        }
      ],
      "stateMutability": "view",
      "type": "function"
    },
    {
      "inputs": [
        {
          "internalType": "bytes4",
          "name": "interfaceId",
          "type": "bytes4"
        }
      ],
      "name": "supportsInterface",
      "outputs": [
        {
          "internalType": "bool",
          "name": "",
          "type": "bool"
        }
      ],
      "stateMutability": "view",
      "type": "function"
    },
    {
      "inputs": [],
      "name": "ticketCount",
      "outputs": [
        {
          "internalType": "uint256",
          "name": "",
          "type": "uint256"
        }
      ],
      "stateMutability": "view",
      "type": "function"
    },
    {
      "inputs": [
        {
          "internalType": "uint256",
          "name": "",
          "type": "uint256"
        }
      ],
      "name": "ticketOwners",
      "outputs": [
        {
          "internalType": "address",
          "name": "",
          "type": "address"
        }
      ],
      "stateMutability": "view",
      "type": "function"
    },
    {
      "inputs": [],
      "name": "ticketPrice",
      "outputs": [
        {
          "internalType": "uint256",
          "name": "",
          "type": "uint256"
        }
      ],
      "stateMutability": "view",
      "type": "function"
    },
    {
      "inputs": [
        {
          "internalType": "uint256",
          "name": "",
          "type": "uint256"
        }
      ],
      "name": "uri",
      "outputs": [
        {
          "internalType": "string",
          "name": "",
          "type": "string"
        }
      ],
      "stateMutability": "view",
      "type": "function"
    },
    {
      "stateMutability": "payable",
      "type": "receive"
    }
  ],
  "bytecode": "0x60806040526008600d553480156200001657600080fd5b50604051620046253803806200462583398181016040528101906200003c9190620003bd565b866200004e816200017560201b60201c565b5033600360006101000a81548173ffffffffffffffffffffffffffffffffffffffff021916908373ffffffffffffffffffffffffffffffffffffffff16021790555085600b819055508460098190555083600760006101000a81548173ffffffffffffffffffffffffffffffffffffffff021916908373ffffffffffffffffffffffffffffffffffffffff16021790555082600860006101000a81548173ffffffffffffffffffffffffffffffffffffffff021916908373ffffffffffffffffffffffffffffffffffffffff1602179055508160058190555080600460006101000a81548173ffffffffffffffffffffffffffffffffffffffff021916908373ffffffffffffffffffffffffffffffffffffffff16021790555050505050505050620007b7565b8060029081620001869190620006d0565b5050565b6000604051905090565b600080fd5b600080fd5b600080fd5b600080fd5b6000601f19601f8301169050919050565b7f4e487b7100000000000000000000000000000000000000000000000000000000600052604160045260246000fd5b620001f382620001a8565b810181811067ffffffffffffffff82111715620002155762000214620001b9565b5b80604052505050565b60006200022a6200018a565b9050620002388282620001e8565b919050565b600067ffffffffffffffff8211156200025b576200025a620001b9565b5b6200026682620001a8565b9050602081019050919050565b60005b838110156200029357808201518184015260208101905062000276565b60008484015250505050565b6000620002b6620002b0846200023d565b6200021e565b905082815260208101848484011115620002d557620002d4620001a3565b5b620002e284828562000273565b509392505050565b600082601f8301126200030257620003016200019e565b5b8151620003148482602086016200029f565b91505092915050565b6000819050919050565b62000332816200031d565b81146200033e57600080fd5b50565b600081519050620003528162000327565b92915050565b600073ffffffffffffffffffffffffffffffffffffffff82169050919050565b6000620003858262000358565b9050919050565b620003978162000378565b8114620003a357600080fd5b50565b600081519050620003b7816200038c565b92915050565b600080600080600080600060e0888a031215620003df57620003de62000194565b5b600088015167ffffffffffffffff8111156200040057620003ff62000199565b5b6200040e8a828b01620002ea565b9750506020620004218a828b0162000341565b9650506040620004348a828b0162000341565b9550506060620004478a828b01620003a6565b94505060806200045a8a828b01620003a6565b93505060a06200046d8a828b0162000341565b92505060c0620004808a828b01620003a6565b91505092959891949750929550565b600081519050919050565b7f4e487b7100000000000000000000000000000000000000000000000000000000600052602260045260246000fd5b60006002820490506001821680620004e257607f821691505b602082108103620004f857620004f76200049a565b5b50919050565b60008190508160005260206000209050919050565b60006020601f8301049050919050565b600082821b905092915050565b600060088302620005627fffffffffffffffffffffffffffffffffffffffffffffffffffffffffffffffff8262000523565b6200056e868362000523565b95508019841693508086168417925050509392505050565b6000819050919050565b6000620005b1620005ab620005a5846200031d565b62000586565b6200031d565b9050919050565b6000819050919050565b620005cd8362000590565b620005e5620005dc82620005b8565b84845462000530565b825550505050565b600090565b620005fc620005ed565b62000609818484620005c2565b505050565b5b81811015620006315762000625600082620005f2565b6001810190506200060f565b5050565b601f82111562000680576200064a81620004fe565b620006558462000513565b8101602085101562000665578190505b6200067d620006748562000513565b8301826200060e565b50505b505050565b600082821c905092915050565b6000620006a56000198460080262000685565b1980831691505092915050565b6000620006c0838362000692565b9150826002028217905092915050565b620006db826200048f565b67ffffffffffffffff811115620006f757620006f6620001b9565b5b620007038254620004c9565b6200071082828562000635565b600060209050601f83116001811462000748576000841562000733578287015190505b6200073f8582620006b2565b865550620007af565b601f1984166200075886620004fe565b60005b8281101562000782578489015182556001820191506020850194506020810190506200075b565b86831015620007a257848901516200079e601f89168262000692565b8355505b6001600288020188555050505b505050505050565b613e5e80620007c76000396000f3fe6080604052600436106101ba5760003560e01c8063959933e8116100ec578063e146f7271161008a578063e985e9c511610064578063e985e9c5146105c6578063eb2dbcf614610603578063f242432a14610640578063f851a44014610669576101c1565b8063e146f72714610566578063e42a96e714610570578063e4cf68cb1461059b576101c1565b8063cf968e58116100c6578063cf968e58146104ba578063cfbd900f146104e5578063d5abeb0114610510578063db7ca2471461053b576101c1565b8063959933e81461043b5780639d451ed814610466578063a22cb46514610491576101c1565b80631209b1f6116101595780634e1273f4116101335780634e1273f41461038e5780635b358a89146103cb57806365bc18a9146103f65780638f28397014610412576101c1565b80631209b1f61461030f5780632eb2c2d61461033a578063323046b114610363576101c1565b806303c0a3891161019557806303c0a389146102695780630442ee8a146102925780630b519f69146102bb5780630e89341c146102d2576101c1565b8062fdd58e146101c657806301ffc9a71461020357806302fe530514610240576101c1565b366101c157005b600080fd5b3480156101d257600080fd5b506101ed60048036038101906101e89190612553565b610694565b6040516101fa91906125a2565b60405180910390f35b34801561020f57600080fd5b5061022a60048036038101906102259190612615565b61075c565b604051610237919061265d565b60405180910390f35b34801561024c57600080fd5b50610267600480360381019061026291906127be565b61083e565b005b34801561027557600080fd5b50610290600480360381019061028b91906127be565b610930565b005b34801561029e57600080fd5b506102b960048036038101906102b49190612807565b610a29565b005b3480156102c757600080fd5b506102d0610ac3565b005b3480156102de57600080fd5b506102f960048036038101906102f49190612807565b610b70565b60405161030691906128b3565b60405180910390f35b34801561031b57600080fd5b50610324610c04565b60405161033191906125a2565b60405180910390f35b34801561034657600080fd5b50610361600480360381019061035c9190612a3e565b610c0a565b005b34801561036f57600080fd5b50610378610cab565b60405161038591906128b3565b60405180910390f35b34801561039a57600080fd5b506103b560048036038101906103b09190612bd0565b610d39565b6040516103c29190612d06565b60405180910390f35b3480156103d757600080fd5b506103e0610e52565b6040516103ed91906125a2565b60405180910390f35b610410600480360381019061040b9190612807565b610e58565b005b34801561041e57600080fd5b5061043960048036038101906104349190612d28565b61109e565b005b34801561044757600080fd5b506104506111c8565b60405161045d9190612d64565b60405180910390f35b34801561047257600080fd5b5061047b6111ee565b60405161048891906125a2565b60405180910390f35b34801561049d57600080fd5b506104b860048036038101906104b39190612dab565b6111f4565b005b3480156104c657600080fd5b506104cf61120a565b6040516104dc9190612d64565b60405180910390f35b3480156104f157600080fd5b506104fa611230565b60405161050791906125a2565b60405180910390f35b34801561051c57600080fd5b50610525611236565b60405161053291906125a2565b60405180910390f35b34801561054757600080fd5b5061055061123c565b60405161055d919061265d565b60405180910390f35b61056e61124f565b005b34801561057c57600080fd5b506105856113c6565b6040516105929190612d64565b60405180910390f35b3480156105a757600080fd5b506105b06113ec565b6040516105bd9190612ea9565b60405180910390f35b3480156105d257600080fd5b506105ed60048036038101906105e89190612ecb565b611543565b6040516105fa919061265d565b60405180910390f35b34801561060f57600080fd5b5061062a60048036038101906106259190612807565b6115d7565b6040516106379190612d64565b60405180910390f35b34801561064c57600080fd5b5061066760048036038101906106629190612f0b565b611616565b005b34801561067557600080fd5b5061067e6116b7565b60405161068b9190612d64565b60405180910390f35b60008073ffffffffffffffffffffffffffffffffffffffff168373ffffffffffffffffffffffffffffffffffffffff1603610704576040517f08c379a00000000000000000000000000000000000000000000000000000000081526004016106fb90613014565b60405180910390fd5b60008083815260200190815260200160002060008473ffffffffffffffffffffffffffffffffffffffff1673ffffffffffffffffffffffffffffffffffffffff16815260200190815260200160002054905092915050565b60007fd9b67a26000000000000000000000000000000000000000000000000000000007bffffffffffffffffffffffffffffffffffffffffffffffffffffffff1916827bffffffffffffffffffffffffffffffffffffffffffffffffffffffff1916148061082757507f0e89341c000000000000000000000000000000000000000000000000000000007bffffffffffffffffffffffffffffffffffffffffffffffffffffffff1916827bffffffffffffffffffffffffffffffffffffffffffffffffffffffff1916145b806108375750610836826116dd565b5b9050919050565b600360009054906101000a900473ffffffffffffffffffffffffffffffffffffffff1673ffffffffffffffffffffffffffffffffffffffff163373ffffffffffffffffffffffffffffffffffffffff16146108ce576040517f08c379a00000000000000000000000000000000000000000000000000000000081526004016108c590613080565b60405180910390fd5b60001515600c60009054906101000a900460ff16151514610924576040517f08c379a000000000000000000000000000000000000000000000000000000000815260040161091b906130ec565b60405180910390fd5b61092d81611747565b50565b600360009054906101000a900473ffffffffffffffffffffffffffffffffffffffff1673ffffffffffffffffffffffffffffffffffffffff163373ffffffffffffffffffffffffffffffffffffffff16146109c0576040517f08c379a00000000000000000000000000000000000000000000000000000000081526004016109b790613080565b60405180910390fd5b60001515600c60009054906101000a900460ff16151514610a16576040517f08c379a0000000000000000000000000000000000000000000000000000000008152600401610a0d906130ec565b60405180910390fd5b80600a9081610a259190613318565b5050565b600360009054906101000a900473ffffffffffffffffffffffffffffffffffffffff1673ffffffffffffffffffffffffffffffffffffffff163373ffffffffffffffffffffffffffffffffffffffff1614610ab9576040517f08c379a0000000000000000000000000000000000000000000000000000000008152600401610ab090613080565b60405180910390fd5b80600d8190555050565b600360009054906101000a900473ffffffffffffffffffffffffffffffffffffffff1673ffffffffffffffffffffffffffffffffffffffff163373ffffffffffffffffffffffffffffffffffffffff1614610b53576040517f08c379a0000000000000000000000000000000000000000000000000000000008152600401610b4a90613080565b60405180910390fd5b6001600c60006101000a81548160ff021916908315150217905550565b606060028054610b7f9061313b565b80601f0160208091040260200160405190810160405280929190818152602001828054610bab9061313b565b8015610bf85780601f10610bcd57610100808354040283529160200191610bf8565b820191906000526020600020905b815481529060010190602001808311610bdb57829003601f168201915b50505050509050919050565b600b5481565b610c1261175a565b73ffffffffffffffffffffffffffffffffffffffff168573ffffffffffffffffffffffffffffffffffffffff161480610c585750610c5785610c5261175a565b611543565b5b610c97576040517f08c379a0000000000000000000000000000000000000000000000000000000008152600401610c8e9061345c565b60405180910390fd5b610ca48585858585611762565b5050505050565b600a8054610cb89061313b565b80601f0160208091040260200160405190810160405280929190818152602001828054610ce49061313b565b8015610d315780601f10610d0657610100808354040283529160200191610d31565b820191906000526020600020905b815481529060010190602001808311610d1457829003601f168201915b505050505081565b60608151835114610d7f576040517f08c379a0000000000000000000000000000000000000000000000000000000008152600401610d76906134ee565b60405180910390fd5b6000835167ffffffffffffffff811115610d9c57610d9b612693565b5b604051908082528060200260200182016040528015610dca5781602001602082028036833780820191505090505b50905060005b8451811015610e4757610e17858281518110610def57610dee61350e565b5b6020026020010151858381518110610e0a57610e0961350e565b5b6020026020010151610694565b828281518110610e2a57610e2961350e565b5b60200260200101818152505080610e409061356c565b9050610dd0565b508091505092915050565b600d5481565b60001515600c60009054906101000a900460ff16151514610eae576040517f08c379a0000000000000000000000000000000000000000000000000000000008152600401610ea5906130ec565b60405180910390fd5b80600d5481610ebe336001610694565b610ec891906135b4565b1115610f09576040517f08c379a0000000000000000000000000000000000000000000000000000000008152600401610f0090613634565b60405180910390fd5b600b54341015610f4e576040517f08c379a0000000000000000000000000000000000000000000000000000000008152600401610f45906136a0565b60405180910390fd5b81600654610f5c91906135b4565b60055411610f9f576040517f08c379a0000000000000000000000000000000000000000000000000000000008152600401610f9690613732565b60405180910390fd5b6000600190506060600460009054906101000a900473ffffffffffffffffffffffffffffffffffffffff1673ffffffffffffffffffffffffffffffffffffffff166108fc349081150290604051600060405180830381858888f1935050505015801561100f573d6000803e3d6000fd5b5061101c33838684611a83565b600e339080600181540180825580915050600190039060005260206000200160009091909190916101000a81548173ffffffffffffffffffffffffffffffffffffffff021916908373ffffffffffffffffffffffffffffffffffffffff160217905550836006600082825461109191906135b4565b9250508190555050505050565b600360009054906101000a900473ffffffffffffffffffffffffffffffffffffffff1673ffffffffffffffffffffffffffffffffffffffff163373ffffffffffffffffffffffffffffffffffffffff161461112e576040517f08c379a000000000000000000000000000000000000000000000000000000000815260040161112590613080565b60405180910390fd5b60001515600c60009054906101000a900460ff16151514611184576040517f08c379a000000000000000000000000000000000000000000000000000000000815260040161117b906130ec565b60405180910390fd5b80600360006101000a81548173ffffffffffffffffffffffffffffffffffffffff021916908373ffffffffffffffffffffffffffffffffffffffff16021790555050565b600760009054906101000a900473ffffffffffffffffffffffffffffffffffffffff1681565b60095481565b6112066111ff61175a565b8383611c33565b5050565b600860009054906101000a900473ffffffffffffffffffffffffffffffffffffffff1681565b60065481565b60055481565b600c60009054906101000a900460ff1681565b600360009054906101000a900473ffffffffffffffffffffffffffffffffffffffff1673ffffffffffffffffffffffffffffffffffffffff163373ffffffffffffffffffffffffffffffffffffffff16146112df576040517f08c379a00000000000000000000000000000000000000000000000000000000081526004016112d690613080565b60405180910390fd5b6000600954476112ef9190613781565b9050600760009054906101000a900473ffffffffffffffffffffffffffffffffffffffff1673ffffffffffffffffffffffffffffffffffffffff166108fc829081150290604051600060405180830381858888f19350505050158015611359573d6000803e3d6000fd5b50600860009054906101000a900473ffffffffffffffffffffffffffffffffffffffff1673ffffffffffffffffffffffffffffffffffffffff166108fc479081150290604051600060405180830381858888f193505050501580156113c2573d6000803e3d6000fd5b5050565b600460009054906101000a900473ffffffffffffffffffffffffffffffffffffffff1681565b6060600060065467ffffffffffffffff81111561140c5761140b612693565b5b60405190808252806020026020018201604052801561143a5781602001602082028036833780820191505090505b50905060005b60065481101561153b576000611495600e83815481106114635761146261350e565b5b9060005260206000200160009054906101000a900473ffffffffffffffffffffffffffffffffffffffff166001610694565b111561152857600e81815481106114af576114ae61350e565b5b9060005260206000200160009054906101000a900473ffffffffffffffffffffffffffffffffffffffff168282815181106114ed576114ec61350e565b5b602002602001019073ffffffffffffffffffffffffffffffffffffffff16908173ffffffffffffffffffffffffffffffffffffffff16815250505b80806115339061356c565b915050611440565b508091505090565b6000600160008473ffffffffffffffffffffffffffffffffffffffff1673ffffffffffffffffffffffffffffffffffffffff16815260200190815260200160002060008373ffffffffffffffffffffffffffffffffffffffff1673ffffffffffffffffffffffffffffffffffffffff16815260200190815260200160002060009054906101000a900460ff16905092915050565b600e81815481106115e757600080fd5b906000526020600020016000915054906101000a900473ffffffffffffffffffffffffffffffffffffffff1681565b61161e61175a565b73ffffffffffffffffffffffffffffffffffffffff168573ffffffffffffffffffffffffffffffffffffffff16148061166457506116638561165e61175a565b611543565b5b6116a3576040517f08c379a000000000000000000000000000000000000000000000000000000000815260040161169a9061345c565b60405180910390fd5b6116b08585858585611d9f565b5050505050565b600360009054906101000a900473ffffffffffffffffffffffffffffffffffffffff1681565b60007f01ffc9a7000000000000000000000000000000000000000000000000000000007bffffffffffffffffffffffffffffffffffffffffffffffffffffffff1916827bffffffffffffffffffffffffffffffffffffffffffffffffffffffff1916149050919050565b80600290816117569190613318565b5050565b600033905090565b81518351146117a6576040517f08c379a000000000000000000000000000000000000000000000000000000000815260040161179d90613824565b60405180910390fd5b600073ffffffffffffffffffffffffffffffffffffffff168473ffffffffffffffffffffffffffffffffffffffff1603611815576040517f08c379a000000000000000000000000000000000000000000000000000000000815260040161180c906138b6565b60405180910390fd5b600061181f61175a565b905061182f81878787878761203a565b60005b84518110156119e05760008582815181106118505761184f61350e565b5b60200260200101519050600085838151811061186f5761186e61350e565b5b60200260200101519050600080600084815260200190815260200160002060008b73ffffffffffffffffffffffffffffffffffffffff1673ffffffffffffffffffffffffffffffffffffffff16815260200190815260200160002054905081811015611910576040517f08c379a000000000000000000000000000000000000000000000000000000000815260040161190790613948565b60405180910390fd5b81810360008085815260200190815260200160002060008c73ffffffffffffffffffffffffffffffffffffffff1673ffffffffffffffffffffffffffffffffffffffff168152602001908152602001600020819055508160008085815260200190815260200160002060008b73ffffffffffffffffffffffffffffffffffffffff1673ffffffffffffffffffffffffffffffffffffffff16815260200190815260200160002060008282546119c591906135b4565b92505081905550505050806119d99061356c565b9050611832565b508473ffffffffffffffffffffffffffffffffffffffff168673ffffffffffffffffffffffffffffffffffffffff168273ffffffffffffffffffffffffffffffffffffffff167f4a39dc06d4c0dbc64b70af90fd698a233a518aa5d07e595d983b8c0526c8f7fb8787604051611a57929190613968565b60405180910390a4611a6d818787878787612050565b611a7b818787878787612058565b505050505050565b600073ffffffffffffffffffffffffffffffffffffffff168473ffffffffffffffffffffffffffffffffffffffff1603611af2576040517f08c379a0000000000000000000000000000000000000000000000000000000008152600401611ae990613a11565b60405180910390fd5b6000611afc61175a565b90506000611b098561222f565b90506000611b168561222f565b9050611b278360008985858961203a565b8460008088815260200190815260200160002060008973ffffffffffffffffffffffffffffffffffffffff1673ffffffffffffffffffffffffffffffffffffffff1681526020019081526020016000206000828254611b8691906135b4565b925050819055508673ffffffffffffffffffffffffffffffffffffffff16600073ffffffffffffffffffffffffffffffffffffffff168473ffffffffffffffffffffffffffffffffffffffff167fc3d58168c5ae7397731d063d5bbf3d657854427343f4c083240f7aacaa2d0f628989604051611c04929190613a31565b60405180910390a4611c1b83600089858589612050565b611c2a836000898989896122a9565b50505050505050565b8173ffffffffffffffffffffffffffffffffffffffff168373ffffffffffffffffffffffffffffffffffffffff1603611ca1576040517f08c379a0000000000000000000000000000000000000000000000000000000008152600401611c9890613acc565b60405180910390fd5b80600160008573ffffffffffffffffffffffffffffffffffffffff1673ffffffffffffffffffffffffffffffffffffffff16815260200190815260200160002060008473ffffffffffffffffffffffffffffffffffffffff1673ffffffffffffffffffffffffffffffffffffffff16815260200190815260200160002060006101000a81548160ff0219169083151502179055508173ffffffffffffffffffffffffffffffffffffffff168373ffffffffffffffffffffffffffffffffffffffff167f17307eab39ab6107e8899845ad3d59bd9653f200f220920489ca2b5937696c3183604051611d92919061265d565b60405180910390a3505050565b600073ffffffffffffffffffffffffffffffffffffffff168473ffffffffffffffffffffffffffffffffffffffff1603611e0e576040517f08c379a0000000000000000000000000000000000000000000000000000000008152600401611e05906138b6565b60405180910390fd5b6000611e1861175a565b90506000611e258561222f565b90506000611e328561222f565b9050611e4283898985858961203a565b600080600088815260200190815260200160002060008a73ffffffffffffffffffffffffffffffffffffffff1673ffffffffffffffffffffffffffffffffffffffff16815260200190815260200160002054905085811015611ed9576040517f08c379a0000000000000000000000000000000000000000000000000000000008152600401611ed090613948565b60405180910390fd5b85810360008089815260200190815260200160002060008b73ffffffffffffffffffffffffffffffffffffffff1673ffffffffffffffffffffffffffffffffffffffff168152602001908152602001600020819055508560008089815260200190815260200160002060008a73ffffffffffffffffffffffffffffffffffffffff1673ffffffffffffffffffffffffffffffffffffffff1681526020019081526020016000206000828254611f8e91906135b4565b925050819055508773ffffffffffffffffffffffffffffffffffffffff168973ffffffffffffffffffffffffffffffffffffffff168573ffffffffffffffffffffffffffffffffffffffff167fc3d58168c5ae7397731d063d5bbf3d657854427343f4c083240f7aacaa2d0f628a8a60405161200b929190613a31565b60405180910390a4612021848a8a86868a612050565b61202f848a8a8a8a8a6122a9565b505050505050505050565b612048868686868686612480565b505050505050565b505050505050565b6120778473ffffffffffffffffffffffffffffffffffffffff16612488565b15612227578373ffffffffffffffffffffffffffffffffffffffff1663bc197c8187878686866040518663ffffffff1660e01b81526004016120bd959493929190613b41565b6020604051808303816000875af19250505080156120f957506040513d601f19601f820116820180604052508101906120f69190613bbe565b60015b61219e57612105613bf8565b806308c379a0036121615750612119613c1a565b806121245750612163565b806040517f08c379a000000000000000000000000000000000000000000000000000000000815260040161215891906128b3565b60405180910390fd5b505b6040517f08c379a000000000000000000000000000000000000000000000000000000000815260040161219590613d1c565b60405180910390fd5b63bc197c8160e01b7bffffffffffffffffffffffffffffffffffffffffffffffffffffffff1916817bffffffffffffffffffffffffffffffffffffffffffffffffffffffff191614612225576040517f08c379a000000000000000000000000000000000000000000000000000000000815260040161221c90613dae565b60405180910390fd5b505b505050505050565b60606000600167ffffffffffffffff81111561224e5761224d612693565b5b60405190808252806020026020018201604052801561227c5781602001602082028036833780820191505090505b50905082816000815181106122945761229361350e565b5b60200260200101818152505080915050919050565b6122c88473ffffffffffffffffffffffffffffffffffffffff16612488565b15612478578373ffffffffffffffffffffffffffffffffffffffff1663f23a6e6187878686866040518663ffffffff1660e01b815260040161230e959493929190613dce565b6020604051808303816000875af192505050801561234a57506040513d601f19601f820116820180604052508101906123479190613bbe565b60015b6123ef57612356613bf8565b806308c379a0036123b2575061236a613c1a565b8061237557506123b4565b806040517f08c379a00000000000000000000000000000000000000000000000000000000081526004016123a991906128b3565b60405180910390fd5b505b6040517f08c379a00000000000000000000000000000000000000000000000000000000081526004016123e690613d1c565b60405180910390fd5b63f23a6e6160e01b7bffffffffffffffffffffffffffffffffffffffffffffffffffffffff1916817bffffffffffffffffffffffffffffffffffffffffffffffffffffffff191614612476576040517f08c379a000000000000000000000000000000000000000000000000000000000815260040161246d90613dae565b60405180910390fd5b505b505050505050565b505050505050565b6000808273ffffffffffffffffffffffffffffffffffffffff163b119050919050565b6000604051905090565b600080fd5b600080fd5b600073ffffffffffffffffffffffffffffffffffffffff82169050919050565b60006124ea826124bf565b9050919050565b6124fa816124df565b811461250557600080fd5b50565b600081359050612517816124f1565b92915050565b6000819050919050565b6125308161251d565b811461253b57600080fd5b50565b60008135905061254d81612527565b92915050565b6000806040838503121561256a576125696124b5565b5b600061257885828601612508565b92505060206125898582860161253e565b9150509250929050565b61259c8161251d565b82525050565b60006020820190506125b76000830184612593565b92915050565b60007fffffffff0000000000000000000000000000000000000000000000000000000082169050919050565b6125f2816125bd565b81146125fd57600080fd5b50565b60008135905061260f816125e9565b92915050565b60006020828403121561262b5761262a6124b5565b5b600061263984828501612600565b91505092915050565b60008115159050919050565b61265781612642565b82525050565b6000602082019050612672600083018461264e565b92915050565b600080fd5b600080fd5b6000601f19601f8301169050919050565b7f4e487b7100000000000000000000000000000000000000000000000000000000600052604160045260246000fd5b6126cb82612682565b810181811067ffffffffffffffff821117156126ea576126e9612693565b5b80604052505050565b60006126fd6124ab565b905061270982826126c2565b919050565b600067ffffffffffffffff82111561272957612728612693565b5b61273282612682565b9050602081019050919050565b82818337600083830152505050565b600061276161275c8461270e565b6126f3565b90508281526020810184848401111561277d5761277c61267d565b5b61278884828561273f565b509392505050565b600082601f8301126127a5576127a4612678565b5b81356127b584826020860161274e565b91505092915050565b6000602082840312156127d4576127d36124b5565b5b600082013567ffffffffffffffff8111156127f2576127f16124ba565b5b6127fe84828501612790565b91505092915050565b60006020828403121561281d5761281c6124b5565b5b600061282b8482850161253e565b91505092915050565b600081519050919050565b600082825260208201905092915050565b60005b8381101561286e578082015181840152602081019050612853565b60008484015250505050565b600061288582612834565b61288f818561283f565b935061289f818560208601612850565b6128a881612682565b840191505092915050565b600060208201905081810360008301526128cd818461287a565b905092915050565b600067ffffffffffffffff8211156128f0576128ef612693565b5b602082029050602081019050919050565b600080fd5b6000612919612914846128d5565b6126f3565b9050808382526020820190506020840283018581111561293c5761293b612901565b5b835b818110156129655780612951888261253e565b84526020840193505060208101905061293e565b5050509392505050565b600082601f83011261298457612983612678565b5b8135612994848260208601612906565b91505092915050565b600067ffffffffffffffff8211156129b8576129b7612693565b5b6129c182612682565b9050602081019050919050565b60006129e16129dc8461299d565b6126f3565b9050828152602081018484840111156129fd576129fc61267d565b5b612a0884828561273f565b509392505050565b600082601f830112612a2557612a24612678565b5b8135612a358482602086016129ce565b91505092915050565b600080600080600060a08688031215612a5a57612a596124b5565b5b6000612a6888828901612508565b9550506020612a7988828901612508565b945050604086013567ffffffffffffffff811115612a9a57612a996124ba565b5b612aa68882890161296f565b935050606086013567ffffffffffffffff811115612ac757612ac66124ba565b5b612ad38882890161296f565b925050608086013567ffffffffffffffff811115612af457612af36124ba565b5b612b0088828901612a10565b9150509295509295909350565b600067ffffffffffffffff821115612b2857612b27612693565b5b602082029050602081019050919050565b6000612b4c612b4784612b0d565b6126f3565b90508083825260208201905060208402830185811115612b6f57612b6e612901565b5b835b81811015612b985780612b848882612508565b845260208401935050602081019050612b71565b5050509392505050565b600082601f830112612bb757612bb6612678565b5b8135612bc7848260208601612b39565b91505092915050565b60008060408385031215612be757612be66124b5565b5b600083013567ffffffffffffffff811115612c0557612c046124ba565b5b612c1185828601612ba2565b925050602083013567ffffffffffffffff811115612c3257612c316124ba565b5b612c3e8582860161296f565b9150509250929050565b600081519050919050565b600082825260208201905092915050565b6000819050602082019050919050565b612c7d8161251d565b82525050565b6000612c8f8383612c74565b60208301905092915050565b6000602082019050919050565b6000612cb382612c48565b612cbd8185612c53565b9350612cc883612c64565b8060005b83811015612cf9578151612ce08882612c83565b9750612ceb83612c9b565b925050600181019050612ccc565b5085935050505092915050565b60006020820190508181036000830152612d208184612ca8565b905092915050565b600060208284031215612d3e57612d3d6124b5565b5b6000612d4c84828501612508565b91505092915050565b612d5e816124df565b82525050565b6000602082019050612d796000830184612d55565b92915050565b612d8881612642565b8114612d9357600080fd5b50565b600081359050612da581612d7f565b92915050565b60008060408385031215612dc257612dc16124b5565b5b6000612dd085828601612508565b9250506020612de185828601612d96565b9150509250929050565b600081519050919050565b600082825260208201905092915050565b6000819050602082019050919050565b612e20816124df565b82525050565b6000612e328383612e17565b60208301905092915050565b6000602082019050919050565b6000612e5682612deb565b612e608185612df6565b9350612e6b83612e07565b8060005b83811015612e9c578151612e838882612e26565b9750612e8e83612e3e565b925050600181019050612e6f565b5085935050505092915050565b60006020820190508181036000830152612ec38184612e4b565b905092915050565b60008060408385031215612ee257612ee16124b5565b5b6000612ef085828601612508565b9250506020612f0185828601612508565b9150509250929050565b600080600080600060a08688031215612f2757612f266124b5565b5b6000612f3588828901612508565b9550506020612f4688828901612508565b9450506040612f578882890161253e565b9350506060612f688882890161253e565b925050608086013567ffffffffffffffff811115612f8957612f886124ba565b5b612f9588828901612a10565b9150509295509295909350565b7f455243313135353a2061646472657373207a65726f206973206e6f742061207660008201527f616c6964206f776e657200000000000000000000000000000000000000000000602082015250565b6000612ffe602a8361283f565b915061300982612fa2565b604082019050919050565b6000602082019050818103600083015261302d81612ff1565b9050919050565b7f6f6e6c792061646d696e00000000000000000000000000000000000000000000600082015250565b600061306a600a8361283f565b915061307582613034565b602082019050919050565b600060208201905081810360008301526130998161305d565b9050919050565b7f73686f77207761732063616e63656c6c65640000000000000000000000000000600082015250565b60006130d660128361283f565b91506130e1826130a0565b602082019050919050565b60006020820190508181036000830152613105816130c9565b9050919050565b7f4e487b7100000000000000000000000000000000000000000000000000000000600052602260045260246000fd5b6000600282049050600182168061315357607f821691505b6020821081036131665761316561310c565b5b50919050565b60008190508160005260206000209050919050565b60006020601f8301049050919050565b600082821b905092915050565b6000600883026131ce7fffffffffffffffffffffffffffffffffffffffffffffffffffffffffffffffff82613191565b6131d88683613191565b95508019841693508086168417925050509392505050565b6000819050919050565b600061321561321061320b8461251d565b6131f0565b61251d565b9050919050565b6000819050919050565b61322f836131fa565b61324361323b8261321c565b84845461319e565b825550505050565b600090565b61325861324b565b613263818484613226565b505050565b5b818110156132875761327c600082613250565b600181019050613269565b5050565b601f8211156132cc5761329d8161316c565b6132a684613181565b810160208510156132b5578190505b6132c96132c185613181565b830182613268565b50505b505050565b600082821c905092915050565b60006132ef600019846008026132d1565b1980831691505092915050565b600061330883836132de565b9150826002028217905092915050565b61332182612834565b67ffffffffffffffff81111561333a57613339612693565b5b613344825461313b565b61334f82828561328b565b600060209050601f8311600181146133825760008415613370578287015190505b61337a85826132fc565b8655506133e2565b601f1984166133908661316c565b60005b828110156133b857848901518255600182019150602085019450602081019050613393565b868310156133d557848901516133d1601f8916826132de565b8355505b6001600288020188555050505b505050505050565b7f455243313135353a2063616c6c6572206973206e6f7420746f6b656e206f776e60008201527f6572206f7220617070726f766564000000000000000000000000000000000000602082015250565b6000613446602e8361283f565b9150613451826133ea565b604082019050919050565b6000602082019050818103600083015261347581613439565b9050919050565b7f455243313135353a206163636f756e747320616e6420696473206c656e67746860008201527f206d69736d617463680000000000000000000000000000000000000000000000602082015250565b60006134d860298361283f565b91506134e38261347c565b604082019050919050565b60006020820190508181036000830152613507816134cb565b9050919050565b7f4e487b7100000000000000000000000000000000000000000000000000000000600052603260045260246000fd5b7f4e487b7100000000000000000000000000000000000000000000000000000000600052601160045260246000fd5b60006135778261251d565b91507fffffffffffffffffffffffffffffffffffffffffffffffffffffffffffffffff82036135a9576135a861353d565b5b600182019050919050565b60006135bf8261251d565b91506135ca8361251d565b92508282019050808211156135e2576135e161353d565b5b92915050565b7f6d6178207469636b657473207075726368617365640000000000000000000000600082015250565b600061361e60158361283f565b9150613629826135e8565b602082019050919050565b6000602082019050818103600083015261364d81613611565b9050919050565b7f506179207265717569726564206d696e696d756d000000000000000000000000600082015250565b600061368a60148361283f565b915061369582613654565b602082019050919050565b600060208201905081810360008301526136b98161367d565b9050919050565b7f4e6f7420656e6f75756768207469636b657473206c656674206f7220736f6c6460008201527f206f757400000000000000000000000000000000000000000000000000000000602082015250565b600061371c60248361283f565b9150613727826136c0565b604082019050919050565b6000602082019050818103600083015261374b8161370f565b9050919050565b7f4e487b7100000000000000000000000000000000000000000000000000000000600052601260045260246000fd5b600061378c8261251d565b91506137978361251d565b9250826137a7576137a6613752565b5b828204905092915050565b7f455243313135353a2069647320616e6420616d6f756e7473206c656e6774682060008201527f6d69736d61746368000000000000000000000000000000000000000000000000602082015250565b600061380e60288361283f565b9150613819826137b2565b604082019050919050565b6000602082019050818103600083015261383d81613801565b9050919050565b7f455243313135353a207472616e7366657220746f20746865207a65726f20616460008201527f6472657373000000000000000000000000000000000000000000000000000000602082015250565b60006138a060258361283f565b91506138ab82613844565b604082019050919050565b600060208201905081810360008301526138cf81613893565b9050919050565b7f455243313135353a20696e73756666696369656e742062616c616e636520666f60008201527f72207472616e7366657200000000000000000000000000000000000000000000602082015250565b6000613932602a8361283f565b915061393d826138d6565b604082019050919050565b6000602082019050818103600083015261396181613925565b9050919050565b600060408201905081810360008301526139828185612ca8565b905081810360208301526139968184612ca8565b90509392505050565b7f455243313135353a206d696e7420746f20746865207a65726f2061646472657360008201527f7300000000000000000000000000000000000000000000000000000000000000602082015250565b60006139fb60218361283f565b9150613a068261399f565b604082019050919050565b60006020820190508181036000830152613a2a816139ee565b9050919050565b6000604082019050613a466000830185612593565b613a536020830184612593565b9392505050565b7f455243313135353a2073657474696e6720617070726f76616c2073746174757360008201527f20666f722073656c660000000000000000000000000000000000000000000000602082015250565b6000613ab660298361283f565b9150613ac182613a5a565b604082019050919050565b60006020820190508181036000830152613ae581613aa9565b9050919050565b600081519050919050565b600082825260208201905092915050565b6000613b1382613aec565b613b1d8185613af7565b9350613b2d818560208601612850565b613b3681612682565b840191505092915050565b600060a082019050613b566000830188612d55565b613b636020830187612d55565b8181036040830152613b758186612ca8565b90508181036060830152613b898185612ca8565b90508181036080830152613b9d8184613b08565b90509695505050505050565b600081519050613bb8816125e9565b92915050565b600060208284031215613bd457613bd36124b5565b5b6000613be284828501613ba9565b91505092915050565b60008160e01c9050919050565b600060033d1115613c175760046000803e613c14600051613beb565b90505b90565b600060443d10613ca757613c2c6124ab565b60043d036004823e80513d602482011167ffffffffffffffff82111715613c54575050613ca7565b808201805167ffffffffffffffff811115613c725750505050613ca7565b80602083010160043d038501811115613c8f575050505050613ca7565b613c9e826020018501866126c2565b82955050505050505b90565b7f455243313135353a207472616e7366657220746f206e6f6e2d4552433131353560008201527f526563656976657220696d706c656d656e746572000000000000000000000000602082015250565b6000613d0660348361283f565b9150613d1182613caa565b604082019050919050565b60006020820190508181036000830152613d3581613cf9565b9050919050565b7f455243313135353a204552433131353552656365697665722072656a6563746560008201527f6420746f6b656e73000000000000000000000000000000000000000000000000602082015250565b6000613d9860288361283f565b9150613da382613d3c565b604082019050919050565b60006020820190508181036000830152613dc781613d8b565b9050919050565b600060a082019050613de36000830188612d55565b613df06020830187612d55565b613dfd6040830186612593565b613e0a6060830185612593565b8181036080830152613e1c8184613b08565b9050969550505050505056fea2646970667358221220bbd6aad06d9c4c74f354f946c212236c53a87a2d7f6e4aff5a62eaeb7328f61564736f6c63430008110033",
  "linkReferences": {},
  "deployedLinkReferences": {}
}