{
    "_format": "hh-sol-artifact-1",
    "contractName": "TicketEscrow",
    "sourceName": "contracts/TicketEscrow.sol",
    "abi": [
        {
            "inputs": [],
            "stateMutability": "nonpayable",
            "type": "constructor"
        },
        {
            "inputs": [],
            "name": "admin",
            "outputs": [
                {
                    "internalType": "address",
                    "name": "",
                    "type": "address"
                }
            ],
            "stateMutability": "view",
            "type": "function"
        },
        {
            "inputs": [],
            "name": "createShowContract",
            "outputs": [
                {
                    "internalType": "address",
                    "name": "",
                    "type": "address"
                }
            ],
            "stateMutability": "view",
            "type": "function"
        },
        {
            "inputs": [],
            "name": "releaseFunds",
            "outputs": [],
            "stateMutability": "payable",
            "type": "function"
        },
        {
            "inputs": [
                {
                    "internalType": "address",
                    "name": "_showContract",
                    "type": "address"
                }
            ],
            "name": "setShowContract",
            "outputs": [],
            "stateMutability": "nonpayable",
            "type": "function"
        },
        {
            "inputs": [
                {
                    "internalType": "address",
                    "name": "_tixContract",
                    "type": "address"
                }
            ],
            "name": "setTicketContract",
            "outputs": [],
            "stateMutability": "nonpayable",
            "type": "function"
        },
        {
            "inputs": [],
            "name": "ticketContract",
            "outputs": [
                {
                    "internalType": "address",
                    "name": "",
                    "type": "address"
                }
            ],
            "stateMutability": "view",
            "type": "function"
        },
        {
            "inputs": [],
            "name": "viewBalance",
            "outputs": [
                {
                    "internalType": "uint256",
                    "name": "",
                    "type": "uint256"
                }
            ],
            "stateMutability": "view",
            "type": "function"
        },
        {
            "stateMutability": "payable",
            "type": "receive"
        }
    ],
    "bytecode": "0x608060405234801561001057600080fd5b50336000806101000a81548173ffffffffffffffffffffffffffffffffffffffff021916908373ffffffffffffffffffffffffffffffffffffffff1602179055506106ab806100606000396000f3fe6080604052600436106100735760003560e01c806358a86e1d1161004e57806358a86e1d146100fe57806369d8957514610129578063c0caa77214610133578063f851a4401461015c5761007a565b8062608fb11461007f5780630cda96bc146100a85780633ff1e05b146100d35761007a565b3661007a57005b600080fd5b34801561008b57600080fd5b506100a660048036038101906100a19190610501565b610187565b005b3480156100b457600080fd5b506100bd610259565b6040516100ca919061053d565b60405180910390f35b3480156100df57600080fd5b506100e861027f565b6040516100f59190610571565b60405180910390f35b34801561010a57600080fd5b50610113610287565b604051610120919061053d565b60405180910390f35b6101316102ad565b005b34801561013f57600080fd5b5061015a60048036038101906101559190610501565b6103a8565b005b34801561016857600080fd5b5061017161047a565b60405161017e919061053d565b60405180910390f35b60008054906101000a900473ffffffffffffffffffffffffffffffffffffffff1673ffffffffffffffffffffffffffffffffffffffff163373ffffffffffffffffffffffffffffffffffffffff1614610215576040517f08c379a000000000000000000000000000000000000000000000000000000000815260040161020c906105e9565b60405180910390fd5b80600260006101000a81548173ffffffffffffffffffffffffffffffffffffffff021916908373ffffffffffffffffffffffffffffffffffffffff16021790555050565b600260009054906101000a900473ffffffffffffffffffffffffffffffffffffffff1681565b600047905090565b600160009054906101000a900473ffffffffffffffffffffffffffffffffffffffff1681565b600260009054906101000a900473ffffffffffffffffffffffffffffffffffffffff1673ffffffffffffffffffffffffffffffffffffffff163373ffffffffffffffffffffffffffffffffffffffff161461033d576040517f08c379a000000000000000000000000000000000000000000000000000000000815260040161033490610655565b60405180910390fd5b600160009054906101000a900473ffffffffffffffffffffffffffffffffffffffff1673ffffffffffffffffffffffffffffffffffffffff166108fc479081150290604051600060405180830381858888f193505050501580156103a5573d6000803e3d6000fd5b50565b60008054906101000a900473ffffffffffffffffffffffffffffffffffffffff1673ffffffffffffffffffffffffffffffffffffffff163373ffffffffffffffffffffffffffffffffffffffff1614610436576040517f08c379a000000000000000000000000000000000000000000000000000000000815260040161042d906105e9565b60405180910390fd5b80600160006101000a81548173ffffffffffffffffffffffffffffffffffffffff021916908373ffffffffffffffffffffffffffffffffffffffff16021790555050565b60008054906101000a900473ffffffffffffffffffffffffffffffffffffffff1681565b600080fd5b600073ffffffffffffffffffffffffffffffffffffffff82169050919050565b60006104ce826104a3565b9050919050565b6104de816104c3565b81146104e957600080fd5b50565b6000813590506104fb816104d5565b92915050565b6000602082840312156105175761051661049e565b5b6000610525848285016104ec565b91505092915050565b610537816104c3565b82525050565b6000602082019050610552600083018461052e565b92915050565b6000819050919050565b61056b81610558565b82525050565b60006020820190506105866000830184610562565b92915050565b600082825260208201905092915050565b7f6f6e6c792061646d696e2063616e2063616c6c2066756e6374696f6e00000000600082015250565b60006105d3601c8361058c565b91506105de8261059d565b602082019050919050565b60006020820190508181036000830152610602816105c6565b9050919050565b7f6f6e6c792063616c6c61626c652062792073686f7720636f6e74726163740000600082015250565b600061063f601e8361058c565b915061064a82610609565b602082019050919050565b6000602082019050818103600083015261066e81610632565b905091905056fea264697066735822122080e44c597b68652fad79763c0151412ac80092f314481e5b8149c4912cf3918e64736f6c63430008110033",
    "linkReferences": {},
    "deployedLinkReferences": {}
}